{
  "_format": "hh-sol-artifact-1",
  "contractName": "ProjectRegistry",
  "sourceName": "contracts/ProjectRegistry.sol",
  "abi": [
    {
      "inputs": [
        {
          "internalType": "address",
          "name": "_accessManager",
          "type": "address"
        }
      ],
      "stateMutability": "nonpayable",
      "type": "constructor"
    },
    {
      "inputs": [],
      "name": "InvalidAddress",
      "type": "error"
    },
    {
      "inputs": [],
      "name": "InvalidProjectId",
      "type": "error"
    },
    {
      "inputs": [
        {
          "internalType": "string",
          "name": "projectId",
          "type": "string"
        }
      ],
      "name": "ProjectAlreadyExists",
      "type": "error"
    },
    {
      "inputs": [
        {
          "internalType": "string",
          "name": "projectId",
          "type": "string"
        }
      ],
      "name": "ProjectDoesNotExist",
      "type": "error"
    },
    {
      "inputs": [],
      "name": "Unauthorized",
      "type": "error"
    },
    {
      "anonymous": false,
      "inputs": [
        {
          "indexed": true,
          "internalType": "string",
          "name": "projectId",
          "type": "string"
        },
        {
          "indexed": false,
          "internalType": "uint256",
          "name": "amount",
          "type": "uint256"
        }
      ],
      "name": "CarbonCreditsEstimated",
      "type": "event"
    },
    {
      "anonymous": false,
      "inputs": [
        {
          "indexed": true,
          "internalType": "string",
          "name": "projectId",
          "type": "string"
        },
        {
          "indexed": false,
          "internalType": "uint256",
          "name": "amount",
          "type": "uint256"
        }
      ],
      "name": "CarbonCreditsIssued",
      "type": "event"
    },
    {
      "anonymous": false,
      "inputs": [
        {
          "indexed": true,
          "internalType": "string",
          "name": "projectId",
          "type": "string"
        },
        {
          "indexed": true,
          "internalType": "address",
          "name": "owner",
          "type": "address"
        },
        {
          "indexed": false,
          "internalType": "enum ProjectRegistry.LandType",
          "name": "landType",
          "type": "uint8"
        }
      ],
      "name": "ProjectRegistered",
      "type": "event"
    },
    {
      "anonymous": false,
      "inputs": [
        {
          "indexed": true,
          "internalType": "string",
          "name": "projectId",
          "type": "string"
        },
        {
          "indexed": false,
          "internalType": "enum ProjectRegistry.ProjectStatus",
          "name": "newStatus",
          "type": "uint8"
        }
      ],
      "name": "ProjectStatusUpdated",
      "type": "event"
    },
    {
      "inputs": [],
      "name": "access",
      "outputs": [
        {
          "internalType": "contract IAccessControlManager",
          "name": "",
          "type": "address"
        }
      ],
      "stateMutability": "view",
      "type": "function"
    },
    {
      "inputs": [],
      "name": "getAllProjectIds",
      "outputs": [
        {
          "internalType": "string[]",
          "name": "",
          "type": "string[]"
        }
      ],
      "stateMutability": "view",
      "type": "function"
    },
    {
      "inputs": [
        {
          "internalType": "string",
          "name": "projectId",
          "type": "string"
        }
      ],
      "name": "getProject",
      "outputs": [
        {
          "components": [
            {
              "internalType": "address",
              "name": "owner",
              "type": "address"
            },
            {
              "internalType": "uint64",
              "name": "registrationDate",
              "type": "uint64"
            },
            {
              "internalType": "int32",
              "name": "latitude",
              "type": "int32"
            },
            {
              "internalType": "int32",
              "name": "longitude",
              "type": "int32"
            },
            {
              "internalType": "uint32",
              "name": "areaHectares",
              "type": "uint32"
            },
            {
              "internalType": "enum ProjectRegistry.ProjectStatus",
              "name": "status",
              "type": "uint8"
            },
            {
              "internalType": "enum ProjectRegistry.LandType",
              "name": "landType",
              "type": "uint8"
            },
            {
              "internalType": "bool",
              "name": "exists",
              "type": "bool"
            },
            {
              "internalType": "uint256",
              "name": "estimatedCarbonCredits",
              "type": "uint256"
            },
            {
              "internalType": "uint256",
              "name": "issuedCarbonCredits",
              "type": "uint256"
            },
            {
              "internalType": "string",
              "name": "projectId",
              "type": "string"
            },
            {
              "internalType": "string",
              "name": "metadataURI",
              "type": "string"
            },
            {
              "internalType": "bool",
              "name": "minted",
              "type": "bool"
            }
          ],
          "internalType": "struct ProjectRegistry.Project",
          "name": "",
          "type": "tuple"
        }
      ],
      "stateMutability": "view",
      "type": "function"
    },
    {
      "inputs": [
        {
          "internalType": "address",
          "name": "owner",
          "type": "address"
        }
      ],
      "name": "getProjectsByOwner",
      "outputs": [
        {
          "internalType": "string[]",
          "name": "",
          "type": "string[]"
        }
      ],
      "stateMutability": "view",
      "type": "function"
    },
    {
      "inputs": [],
      "name": "getTotalProjects",
      "outputs": [
        {
          "internalType": "uint256",
          "name": "",
          "type": "uint256"
        }
      ],
      "stateMutability": "view",
      "type": "function"
    },
    {
      "inputs": [
        {
          "internalType": "string",
          "name": "projectId",
          "type": "string"
        }
      ],
      "name": "markMinted",
      "outputs": [],
      "stateMutability": "nonpayable",
      "type": "function"
    },
    {
      "inputs": [
        {
          "internalType": "string",
          "name": "projectId",
          "type": "string"
        },
        {
          "internalType": "uint256",
          "name": "issuedCredits",
          "type": "uint256"
        }
      ],
      "name": "recordIssuedCredits",
      "outputs": [],
      "stateMutability": "nonpayable",
      "type": "function"
    },
    {
      "inputs": [
        {
          "internalType": "string",
          "name": "projectId",
          "type": "string"
        },
        {
          "internalType": "string",
          "name": "metadataURI",
          "type": "string"
        },
        {
          "internalType": "uint32",
          "name": "areaHectares",
          "type": "uint32"
        },
        {
          "internalType": "int32",
          "name": "latitude",
          "type": "int32"
        },
        {
          "internalType": "int32",
          "name": "longitude",
          "type": "int32"
        },
        {
          "internalType": "enum ProjectRegistry.LandType",
          "name": "landType",
          "type": "uint8"
        }
      ],
      "name": "registerProject",
      "outputs": [
        {
          "internalType": "bool",
          "name": "",
          "type": "bool"
        }
      ],
      "stateMutability": "nonpayable",
      "type": "function"
    },
    {
      "inputs": [
        {
          "internalType": "string",
          "name": "projectId",
          "type": "string"
        },
        {
          "internalType": "uint256",
          "name": "estimatedCredits",
          "type": "uint256"
        }
      ],
      "name": "setEstimatedCredits",
      "outputs": [],
      "stateMutability": "nonpayable",
      "type": "function"
    },
    {
      "inputs": [
        {
          "internalType": "address",
          "name": "_verificationWorkflow",
          "type": "address"
        }
      ],
      "name": "setVerificationWorkflow",
      "outputs": [],
      "stateMutability": "nonpayable",
      "type": "function"
    },
    {
      "inputs": [
        {
          "internalType": "string",
          "name": "projectId",
          "type": "string"
        },
        {
          "internalType": "enum ProjectRegistry.ProjectStatus",
          "name": "newStatus",
          "type": "uint8"
        }
      ],
      "name": "updateProjectStatus",
      "outputs": [],
      "stateMutability": "nonpayable",
      "type": "function"
    },
    {
      "inputs": [],
      "name": "verificationWorkflow",
      "outputs": [
        {
          "internalType": "address",
          "name": "",
          "type": "address"
        }
      ],
      "stateMutability": "view",
      "type": "function"
    }
  ],
  "bytecode": "0x60a060405234801561000f575f80fd5b50604051611a49380380611a4983398101604081905261002e91610066565b6001600160a01b0381166100555760405163e6c4247b60e01b815260040160405180910390fd5b6001600160a01b0316608052610093565b5f60208284031215610076575f80fd5b81516001600160a01b038116811461008c575f80fd5b9392505050565b60805161196d6100dc5f395f818161013f015281816101ff0152818161028d015281816107120152818161081101528181610e6601528181610fde0152611123015261196d5ff3fe608060405234801561000f575f80fd5b50600436106100b1575f3560e01c8063812739a21161006e578063812739a2146101795780639d9cc2fe1461018a578063da8bb1cf1461019d578063dcaa8522146101b0578063f45bd20c146101c3578063fa81ae3f146101d5575f80fd5b8063176d120e146100b5578063230c6c0a146100dd5780634533e288146100f25780634ac64766146101055780634fa691e21461011a57806371907f171461013a575b5f80fd5b6100c86100c33660046112f0565b6101e8565b60405190151581526020015b60405180910390f35b6100f06100eb3660046113ab565b6106fd565b005b6100f06101003660046113d8565b6107e7565b61010d610968565b6040516100d49190611463565b61012d6101283660046114c5565b610a3c565b6040516100d4919061153c565b6101617f000000000000000000000000000000000000000000000000000000000000000081565b6040516001600160a01b0390911681526020016100d4565b6002546040519081526020016100d4565b61010d6101983660046113ab565b610d52565b6100f06101ab3660046113d8565b610e3c565b6100f06101be3660046114c5565b610fb4565b5f54610161906001600160a01b031681565b6100f06101e3366004611657565b6110f9565b604051631d23861960e01b81523360048201525f907f00000000000000000000000000000000000000000000000000000000000000006001600160a01b031690631d23861990602401602060405180830381865afa15801561024c573d5f803e3d5ffd5b505050506040513d601f19601f8201168201806040525081019061027091906116ad565b1580156103005750604051630935e01b60e21b81523360048201527f00000000000000000000000000000000000000000000000000000000000000006001600160a01b0316906324d7806c90602401602060405180830381865afa1580156102da573d5f803e3d5ffd5b505050506040513d601f19601f820116820180604052508101906102fe91906116ad565b155b1561031d576040516282b42960e81b815260040160405180910390fd5b6001898960405161032f9291906116cc565b9081526040519081900360200190206001015460ff600160501b90910416156103785788886040516315004fff60e31b815260040161036f9291906116db565b60405180910390fd5b5f88900361039957604051632af342d760e21b815260040160405180910390fd5b604051806101a00160405280336001600160a01b031681526020014267ffffffffffffffff1681526020018560030b81526020018460030b81526020018663ffffffff1681526020015f60058111156103f4576103f4611504565b815260200183600381111561040b5761040b611504565b81526020016001151581526020015f81526020015f81526020018a8a8080601f0160208091040260200160405190810160405280939291908181526020018383808284375f92019190915250505090825250604080516020601f8b0181900481028201810190925289815291810191908a908a90819084018382808284375f9201829052509385525050506020909101526040516001906104af908c908c906116cc565b90815260408051602092819003830190208351815493850151928501516001600160a01b039091166001600160e01b031990941693909317600160a01b67ffffffffffffffff90931692909202919091176001600160e01b0316600160e01b63ffffffff938416021781556060830151600182018054608086015192851667ffffffffffffffff199091161764010000000092909416919091029290921780835560a084015191929060ff60401b1916600160401b83600581111561057657610576611504565b021790555060c082015160018201805469ff000000000000000000191669010000000000000000008360038111156105b0576105b0611504565b021790555060e0820151600182018054911515600160501b0260ff60501b1990921691909117905561010082015160028201556101208201516003820155610140820151600482019061060390826117a1565b50610160820151600582019061061990826117a1565b5061018091909101516006909101805460ff1916911515919091179055600280546001810182555f919091527f405787fa12a823e0f2b7631cc41b3ba8828b3321ca811111fa75cd3aa3bb5ace01610672898b83611861565b50335f9081526003602090815260408220805460018101825590835291200161069c898b83611861565b5060405133906106af908b908b906116cc565b60405180910390207f5e933522277a83017c8caf959e2683b1c16638faa94f03566c8782be7d9a2741846040516106e6919061191b565b60405180910390a350600198975050505050505050565b604051630935e01b60e21b81523360048201527f00000000000000000000000000000000000000000000000000000000000000006001600160a01b0316906324d7806c90602401602060405180830381865afa15801561075f573d5f803e3d5ffd5b505050506040513d601f19601f8201168201806040525081019061078391906116ad565b61079f576040516282b42960e81b815260040160405180910390fd5b6001600160a01b0381166107c65760405163e6c4247b60e01b815260040160405180910390fd5b5f80546001600160a01b0319166001600160a01b0392909216919091179055565b5f546001600160a01b031633148015906108845750604051630935e01b60e21b81523360048201527f00000000000000000000000000000000000000000000000000000000000000006001600160a01b0316906324d7806c90602401602060405180830381865afa15801561085e573d5f803e3d5ffd5b505050506040513d601f19601f8201168201806040525081019061088291906116ad565b155b156108a1576040516282b42960e81b815260040160405180910390fd5b600183836040516108b39291906116cc565b9081526040519081900360200190206001015460ff600160501b909104166108f257828260405163733d379960e01b815260040161036f9291906116db565b80600184846040516109059291906116cc565b9081526040519081900360200181206002019190915561092890849084906116cc565b604051908190038120828252907f5d5ec2f17f065cd0b4f1beaea7e8a68d9f800a35e9b21dfe5f7c54a9071326cd906020015b60405180910390a2505050565b60606002805480602002602001604051908101604052809291908181526020015f905b82821015610a33578382905f5260205f200180546109a89061171d565b80601f01602080910402602001604051908101604052809291908181526020018280546109d49061171d565b8015610a1f5780601f106109f657610100808354040283529160200191610a1f565b820191905f5260205f20905b815481529060010190602001808311610a0257829003601f168201915b50505050508152602001906001019061098b565b50505050905090565b610aa5604080516101a0810182525f8082526020820181905291810182905260608101829052608081018290529060a082019081526020015f81526020015f151581526020015f81526020015f815260200160608152602001606081526020015f151581525090565b60018383604051610ab79291906116cc565b9081526040519081900360200190206001015460ff600160501b90910416610af657828260405163733d379960e01b815260040161036f9291906116db565b60018383604051610b089291906116cc565b90815260408051602092819003830181206101a08201835280546001600160a01b0381168352600160a01b810467ffffffffffffffff1694830194909452600160e01b909304600390810b9282019290925260018301549182900b6060820152640100000000820463ffffffff166080820152919060a0830190600160401b900460ff166005811115610b9d57610b9d611504565b6005811115610bae57610bae611504565b81526020016001820160099054906101000a900460ff166003811115610bd657610bd6611504565b6003811115610be757610be7611504565b81526001820154600160501b900460ff16151560208201526002820154604082015260038201546060820152600482018054608090920191610c289061171d565b80601f0160208091040260200160405190810160405280929190818152602001828054610c549061171d565b8015610c9f5780601f10610c7657610100808354040283529160200191610c9f565b820191905f5260205f20905b815481529060010190602001808311610c8257829003601f168201915b50505050508152602001600582018054610cb89061171d565b80601f0160208091040260200160405190810160405280929190818152602001828054610ce49061171d565b8015610d2f5780601f10610d0657610100808354040283529160200191610d2f565b820191905f5260205f20905b815481529060010190602001808311610d1257829003601f168201915b50505091835250506006919091015460ff16151560209091015290505b92915050565b6001600160a01b0381165f908152600360209081526040808320805482518185028101850190935280835260609492939192909184015b82821015610e31578382905f5260205f20018054610da69061171d565b80601f0160208091040260200160405190810160405280929190818152602001828054610dd29061171d565b8015610e1d5780601f10610df457610100808354040283529160200191610e1d565b820191905f5260205f20905b815481529060010190602001808311610e0057829003601f168201915b505050505081526020019060010190610d89565b505050509050919050565b5f546001600160a01b03163314801590610ed95750604051630935e01b60e21b81523360048201527f00000000000000000000000000000000000000000000000000000000000000006001600160a01b0316906324d7806c90602401602060405180830381865afa158015610eb3573d5f803e3d5ffd5b505050506040513d601f19601f82011682018060405250810190610ed791906116ad565b155b15610ef6576040516282b42960e81b815260040160405180910390fd5b60018383604051610f089291906116cc565b9081526040519081900360200190206001015460ff600160501b90910416610f4757828260405163733d379960e01b815260040161036f9291906116db565b8060018484604051610f5a9291906116cc565b90815260405190819003602001812060030191909155610f7d90849084906116cc565b604051908190038120828252907f6f8ad4d428aae4a89368c73d0710b12d29c00037131c118ee75a013832c1cda59060200161095b565b5f546001600160a01b031633148015906110515750604051630935e01b60e21b81523360048201527f00000000000000000000000000000000000000000000000000000000000000006001600160a01b0316906324d7806c90602401602060405180830381865afa15801561102b573d5f803e3d5ffd5b505050506040513d601f19601f8201168201806040525081019061104f91906116ad565b155b1561106e576040516282b42960e81b815260040160405180910390fd5b600182826040516110809291906116cc565b9081526040519081900360200190206001015460ff600160501b909104166110bf57818160405163733d379960e01b815260040161036f9291906116db565b60018083836040516110d29291906116cc565b908152604051908190036020019020600601805491151560ff199092169190911790555050565b5f546001600160a01b031633148015906111965750604051630935e01b60e21b81523360048201527f00000000000000000000000000000000000000000000000000000000000000006001600160a01b0316906324d7806c90602401602060405180830381865afa158015611170573d5f803e3d5ffd5b505050506040513d601f19601f8201168201806040525081019061119491906116ad565b155b156111b3576040516282b42960e81b815260040160405180910390fd5b600183836040516111c59291906116cc565b9081526040519081900360200190206001015460ff600160501b9091041661120457828260405163733d379960e01b815260040161036f9291906116db565b80600184846040516112179291906116cc565b908152604051908190036020019020600101805460ff60401b1916600160401b83600581111561124957611249611504565b0217905550828260405161125e9291906116cc565b60405180910390207fb8a5b3c69d3450db1d6ceddd2ee8e0bb183735adc86b6e2b8c0dbfcc45f2b6528260405161095b9190611929565b5f8083601f8401126112a5575f80fd5b50813567ffffffffffffffff8111156112bc575f80fd5b6020830191508360208285010111156112d3575f80fd5b9250929050565b8035600381900b81146112eb575f80fd5b919050565b5f805f805f805f8060c0898b031215611307575f80fd5b883567ffffffffffffffff8082111561131e575f80fd5b61132a8c838d01611295565b909a50985060208b0135915080821115611342575f80fd5b5061134f8b828c01611295565b909750955050604089013563ffffffff8116811461136b575f80fd5b935061137960608a016112da565b925061138760808a016112da565b915060a08901356004811061139a575f80fd5b809150509295985092959890939650565b5f602082840312156113bb575f80fd5b81356001600160a01b03811681146113d1575f80fd5b9392505050565b5f805f604084860312156113ea575f80fd5b833567ffffffffffffffff811115611400575f80fd5b61140c86828701611295565b909790965060209590950135949350505050565b5f81518084525f5b8181101561144457602081850181015186830182015201611428565b505f602082860101526020601f19601f83011685010191505092915050565b5f60208083016020845280855180835260408601915060408160051b8701019250602087015f5b828110156114b857603f198886030184526114a6858351611420565b9450928501929085019060010161148a565b5092979650505050505050565b5f80602083850312156114d6575f80fd5b823567ffffffffffffffff8111156114ec575f80fd5b6114f885828601611295565b90969095509350505050565b634e487b7160e01b5f52602160045260245ffd5b6006811061152857611528611504565b9052565b6004811061152857611528611504565b602081526115566020820183516001600160a01b03169052565b5f6020830151611572604084018267ffffffffffffffff169052565b506040830151611587606084018260030b9052565b50606083015161159c608084018260030b9052565b50608083015163ffffffff811660a08401525060a08301516115c160c0840182611518565b5060c08301516115d460e084018261152c565b5060e08301516101006115ea8185018315159052565b84015161012084810191909152840151610140808501919091528401516101a0610160808601829052919250906116256101c0860184611420565b9250808601519050610180601f1986850301818701526116458483611420565b96015115159190940152509192915050565b5f805f60408486031215611669575f80fd5b833567ffffffffffffffff81111561167f575f80fd5b61168b86828701611295565b9094509250506020840135600681106116a2575f80fd5b809150509250925092565b5f602082840312156116bd575f80fd5b815180151581146113d1575f80fd5b818382375f9101908152919050565b60208152816020820152818360408301375f818301604090810191909152601f909201601f19160101919050565b634e487b7160e01b5f52604160045260245ffd5b600181811c9082168061173157607f821691505b60208210810361174f57634e487b7160e01b5f52602260045260245ffd5b50919050565b601f82111561179c57805f5260205f20601f840160051c8101602085101561177a5750805b601f840160051c820191505b81811015611799575f8155600101611786565b50505b505050565b815167ffffffffffffffff8111156117bb576117bb611709565b6117cf816117c9845461171d565b84611755565b602080601f831160018114611802575f84156117eb5750858301515b5f19600386901b1c1916600185901b178555611859565b5f85815260208120601f198616915b8281101561183057888601518255948401946001909101908401611811565b508582101561184d57878501515f19600388901b60f8161c191681555b505060018460011b0185555b505050505050565b67ffffffffffffffff83111561187957611879611709565b61188d83611887835461171d565b83611755565b5f601f8411600181146118be575f85156118a75750838201355b5f19600387901b1c1916600186901b178355611799565b5f83815260208120601f198716915b828110156118ed57868501358255602094850194600190920191016118cd565b5086821015611909575f1960f88860031b161c19848701351681555b505060018560011b0183555050505050565b60208101610d4c828461152c565b60208101610d4c828461151856fea264697066735822122029c5b5f0917c84dfb5dfb637ba0b6b7d2ae6ad9eeeac0001d622dccb9fcbab5f64736f6c63430008180033",
  "linkReferences": {},
  "deployedLinkReferences": {}
}