{
  "_format": "hh-sol-artifact-1",
  "contractName": "VerificationWorkflow",
  "sourceName": "contracts/VerificationWorkflow.sol",
  "abi": [
    {
      "inputs": [
        {
          "internalType": "address",
          "name": "_accessManager",
          "type": "address"
        },
        {
          "internalType": "address",
          "name": "_projectRegistry",
          "type": "address"
        },
        {
          "internalType": "address",
          "name": "_carbonToken",
          "type": "address"
        }
      ],
      "stateMutability": "nonpayable",
      "type": "constructor"
    },
    {
      "inputs": [],
      "name": "AlreadyVerified",
      "type": "error"
    },
    {
      "inputs": [],
      "name": "InvalidRecipient",
      "type": "error"
    },
    {
      "inputs": [
        {
          "internalType": "enum ProjectRegistry.ProjectStatus",
          "name": "currentStatus",
          "type": "uint8"
        },
        {
          "internalType": "enum ProjectRegistry.ProjectStatus",
          "name": "expectedStatus",
          "type": "uint8"
        }
      ],
      "name": "InvalidState",
      "type": "error"
    },
    {
      "inputs": [],
      "name": "NotApprovedByNGO",
      "type": "error"
    },
    {
      "inputs": [],
      "name": "NotApprovedByPanchayat",
      "type": "error"
    },
    {
      "inputs": [],
      "name": "Unauthorized",
      "type": "error"
    },
    {
      "anonymous": false,
      "inputs": [
        {
          "indexed": true,
          "internalType": "string",
          "name": "projectId",
          "type": "string"
        },
        {
          "indexed": true,
          "internalType": "address",
          "name": "verifier",
          "type": "address"
        },
        {
          "indexed": false,
          "internalType": "uint256",
          "name": "credits",
          "type": "uint256"
        },
        {
          "indexed": false,
          "internalType": "bool",
          "name": "approved",
          "type": "bool"
        }
      ],
      "name": "AdminApprovalSubmitted",
      "type": "event"
    },
    {
      "anonymous": false,
      "inputs": [
        {
          "indexed": true,
          "internalType": "string",
          "name": "projectId",
          "type": "string"
        },
        {
          "indexed": true,
          "internalType": "address",
          "name": "verifier",
          "type": "address"
        },
        {
          "indexed": false,
          "internalType": "bool",
          "name": "approved",
          "type": "bool"
        }
      ],
      "name": "NGOVerificationSubmitted",
      "type": "event"
    },
    {
      "anonymous": false,
      "inputs": [
        {
          "indexed": true,
          "internalType": "string",
          "name": "projectId",
          "type": "string"
        },
        {
          "indexed": true,
          "internalType": "address",
          "name": "verifier",
          "type": "address"
        },
        {
          "indexed": false,
          "internalType": "bool",
          "name": "approved",
          "type": "bool"
        }
      ],
      "name": "PanchayatApprovalSubmitted",
      "type": "event"
    },
    {
      "inputs": [],
      "name": "access",
      "outputs": [
        {
          "internalType": "contract IAccessControlManager",
          "name": "",
          "type": "address"
        }
      ],
      "stateMutability": "view",
      "type": "function"
    },
    {
      "inputs": [
        {
          "internalType": "string",
          "name": "",
          "type": "string"
        }
      ],
      "name": "adminVerifications",
      "outputs": [
        {
          "internalType": "address",
          "name": "verifier",
          "type": "address"
        },
        {
          "internalType": "uint64",
          "name": "timestamp",
          "type": "uint64"
        },
        {
          "internalType": "bool",
          "name": "approved",
          "type": "bool"
        },
        {
          "internalType": "string",
          "name": "dataHash",
          "type": "string"
        }
      ],
      "stateMutability": "view",
      "type": "function"
    },
    {
      "inputs": [
        {
          "internalType": "string",
          "name": "projectId",
          "type": "string"
        },
        {
          "internalType": "string",
          "name": "dataHash",
          "type": "string"
        },
        {
          "internalType": "string",
          "name": "metadataURI",
          "type": "string"
        }
      ],
      "name": "approveAndMint",
      "outputs": [],
      "stateMutability": "nonpayable",
      "type": "function"
    },
    {
      "inputs": [],
      "name": "carbonToken",
      "outputs": [
        {
          "internalType": "contract CarbonCreditToken",
          "name": "",
          "type": "address"
        }
      ],
      "stateMutability": "view",
      "type": "function"
    },
    {
      "inputs": [
        {
          "internalType": "string",
          "name": "projectId",
          "type": "string"
        }
      ],
      "name": "isFullyApproved",
      "outputs": [
        {
          "internalType": "bool",
          "name": "",
          "type": "bool"
        }
      ],
      "stateMutability": "view",
      "type": "function"
    },
    {
      "inputs": [
        {
          "internalType": "string",
          "name": "",
          "type": "string"
        }
      ],
      "name": "ngoVerifications",
      "outputs": [
        {
          "internalType": "address",
          "name": "verifier",
          "type": "address"
        },
        {
          "internalType": "uint64",
          "name": "timestamp",
          "type": "uint64"
        },
        {
          "internalType": "bool",
          "name": "approved",
          "type": "bool"
        },
        {
          "internalType": "string",
          "name": "dataHash",
          "type": "string"
        }
      ],
      "stateMutability": "view",
      "type": "function"
    },
    {
      "inputs": [
        {
          "internalType": "string",
          "name": "projectId",
          "type": "string"
        },
        {
          "internalType": "string",
          "name": "dataHash",
          "type": "string"
        },
        {
          "internalType": "bool",
          "name": "approve",
          "type": "bool"
        }
      ],
      "name": "ngoVerify",
      "outputs": [],
      "stateMutability": "nonpayable",
      "type": "function"
    },
    {
      "inputs": [
        {
          "internalType": "string",
          "name": "projectId",
          "type": "string"
        },
        {
          "internalType": "string",
          "name": "dataHash",
          "type": "string"
        },
        {
          "internalType": "bool",
          "name": "approve",
          "type": "bool"
        }
      ],
      "name": "panchayatApprove",
      "outputs": [],
      "stateMutability": "nonpayable",
      "type": "function"
    },
    {
      "inputs": [
        {
          "internalType": "string",
          "name": "",
          "type": "string"
        }
      ],
      "name": "panchayatVerifications",
      "outputs": [
        {
          "internalType": "address",
          "name": "verifier",
          "type": "address"
        },
        {
          "internalType": "uint64",
          "name": "timestamp",
          "type": "uint64"
        },
        {
          "internalType": "bool",
          "name": "approved",
          "type": "bool"
        },
        {
          "internalType": "string",
          "name": "dataHash",
          "type": "string"
        }
      ],
      "stateMutability": "view",
      "type": "function"
    },
    {
      "inputs": [],
      "name": "projectRegistry",
      "outputs": [
        {
          "internalType": "contract ProjectRegistry",
          "name": "",
          "type": "address"
        }
      ],
      "stateMutability": "view",
      "type": "function"
    },
    {
      "inputs": [
        {
          "internalType": "string",
          "name": "projectId",
          "type": "string"
        },
        {
          "internalType": "string",
          "name": "dataHash",
          "type": "string"
        }
      ],
      "name": "rejectProject",
      "outputs": [],
      "stateMutability": "nonpayable",
      "type": "function"
    }
  ],
  "bytecode": "0x60e060405234801562000010575f80fd5b5060405162001fc638038062001fc68339810160408190526200003391620000bd565b6001600160a01b03831615806200005157506001600160a01b038216155b806200006457506001600160a01b038116155b156200008357604051634e46966960e11b815260040160405180910390fd5b6001600160a01b0392831660805290821660a0521660c05262000104565b80516001600160a01b0381168114620000b8575f80fd5b919050565b5f805f60608486031215620000d0575f80fd5b620000db84620000a1565b9250620000eb60208501620000a1565b9150620000fb60408501620000a1565b90509250925092565b60805160a05160c051611e12620001b45f395f818161018c01528181610b9f01528181610c360152610ccc01525f8181610113015281816102b50152818161048c0152818161050f015281816108ba01528181610aa201528181610b1f01528181610d4801528181610ec6015281816110930152818161120e0152818161142701526114aa01525f81816101650152818161020f015281816107c901528181610e2001526111680152611e125ff3fe608060405234801561000f575f80fd5b50600436106100a6575f3560e01c806371907f171161006e57806371907f171461016057806382a71ef214610187578063b2e37fe6146101ae578063b72258d6146101c1578063d1380b3c146101d4578063d5f302f7146101e7575f80fd5b8063267fd0e1146100aa57806345a09a85146100bf5780634789f2de146100eb5780635a33d8dc1461010e5780636f308b081461014d575b5f80fd5b6100bd6100b83660046115b1565b6101fa565b005b6100d26100cd3660046116c1565b6105ce565b6040516100e2949392919061175c565b60405180910390f35b6100fe6100f93660046117b6565b6106a6565b60405190151581526020016100e2565b6101357f000000000000000000000000000000000000000000000000000000000000000081565b6040516001600160a01b0390911681526020016100e2565b6100d261015b3660046116c1565b61070f565b6101357f000000000000000000000000000000000000000000000000000000000000000081565b6101357f000000000000000000000000000000000000000000000000000000000000000081565b6100d26101bc3660046116c1565b610761565b6100bd6101cf3660046117f4565b6107b4565b6100bd6101e2366004611886565b610e0b565b6100bd6101f53660046115b1565b611153565b604051631d23861960e01b81523360048201527f00000000000000000000000000000000000000000000000000000000000000006001600160a01b031690631d23861990602401602060405180830381865afa15801561025c573d5f803e3d5ffd5b505050506040513d601f19601f8201168201806040525081019061028091906118fc565b61029c576040516282b42960e81b815260040160405180910390fd5b6040516327d348f160e11b81525f906001600160a01b037f00000000000000000000000000000000000000000000000000000000000000001690634fa691e2906102ec908990899060040161193f565b5f60405180830381865afa158015610306573d5f803e3d5ffd5b505050506040513d5f823e601f3d908101601f1916820160405261032d9190810190611a08565b90505f8160a00151600581111561034657610346611b4b565b14610375578060a001515f604051633bf2e2f960e11b815260040161036c929190611b7f565b60405180910390fd5b6040518060800160405280336001600160a01b03168152602001426001600160401b03168152602001831515815260200185858080601f0160208091040260200160405190810160405280939291908181526020018383808284375f9201829052509390945250506040519091506103f09089908990611b9a565b908152604080519182900360209081019092208351815493850151928501511515600160e01b0260ff60e01b196001600160401b03909416600160a01b026001600160e01b03199095166001600160a01b039092169190911793909317919091169190911781556060820151600182019061046b9082611c2d565b5090505081156104f85760405163fa81ae3f60e01b81526001600160a01b037f0000000000000000000000000000000000000000000000000000000000000000169063fa81ae3f906104c69089908990600190600401611cec565b5f604051808303815f87803b1580156104dd575f80fd5b505af11580156104ef573d5f803e3d5ffd5b50505050610577565b60405163fa81ae3f60e01b81526001600160a01b037f0000000000000000000000000000000000000000000000000000000000000000169063fa81ae3f906105499089908990600590600401611cec565b5f604051808303815f87803b158015610560575f80fd5b505af1158015610572573d5f803e3d5ffd5b505050505b60405133906105899088908890611b9a565b6040519081900381208415158252907fdf28010de0657985c556ec18012484c7cbfe18f42a5ee0f2864cc1e2e06bc5ab906020015b60405180910390a3505050505050565b805160208183018101805160018083529383019290940191909120929052815490820180546001600160a01b03831693600160a01b84046001600160401b031693600160e01b900460ff1692909161062590611ba9565b80601f016020809104026020016040519081016040528092919081815260200182805461065190611ba9565b801561069c5780601f106106735761010080835404028352916020019161069c565b820191905f5260205f20905b81548152906001019060200180831161067f57829003601f168201915b5050505050905084565b5f8083836040516106b8929190611b9a565b9081526040519081900360200190205460ff600160e01b9091041680156107085750600183836040516106ec929190611b9a565b9081526040519081900360200190205460ff600160e01b909104165b9392505050565b80516020818301810180515f82529282019190930120915280546001820180546001600160a01b03831693600160a01b84046001600160401b031693600160e01b900460ff1692909161062590611ba9565b8051602081830181018051600282529282019190930120915280546001820180546001600160a01b03831693600160a01b84046001600160401b031693600160e01b900460ff1692909161062590611ba9565b604051630935e01b60e21b81523360048201527f00000000000000000000000000000000000000000000000000000000000000006001600160a01b0316906324d7806c90602401602060405180830381865afa158015610816573d5f803e3d5ffd5b505050506040513d601f19601f8201168201806040525081019061083a91906118fc565b610856576040516282b42960e81b815260040160405180910390fd5b61086086866106a6565b6108a15760405162461bcd60e51b8152602060048201526012602482015271139bdd08199d5b1b1e481d995c9a599a595960721b604482015260640161036c565b6040516327d348f160e11b81525f906001600160a01b037f00000000000000000000000000000000000000000000000000000000000000001690634fa691e2906108f1908a908a9060040161193f565b5f60405180830381865afa15801561090b573d5f803e3d5ffd5b505050506040513d5f823e601f3d908101601f191682016040526109329190810190611a08565b9050806101800151156109785760405162461bcd60e51b815260206004820152600e60248201526d105b1c9958591e481b5a5b9d195960921b604482015260640161036c565b5f8160800151600a61098a9190611d0e565b63ffffffff1690506040518060800160405280336001600160a01b03168152602001426001600160401b0316815260200160011515815260200187878080601f0160208091040260200160405190810160405280939291908181526020018383808284375f920191909152505050915250604051600290610a0e908b908b90611b9a565b908152604080519182900360209081019092208351815493850151928501511515600160e01b0260ff60e01b196001600160401b03909416600160a01b026001600160e01b03199095166001600160a01b0390921691909117939093179190911691909117815560608201516001820190610a899082611c2d565b505060405163fa81ae3f60e01b81526001600160a01b037f000000000000000000000000000000000000000000000000000000000000000016915063fa81ae3f90610add908b908b90600390600401611cec565b5f604051808303815f87803b158015610af4575f80fd5b505af1158015610b06573d5f803e3d5ffd5b505060405163da8bb1cf60e01b81526001600160a01b037f000000000000000000000000000000000000000000000000000000000000000016925063da8bb1cf9150610b5a908b908b908690600401611d42565b5f604051808303815f87803b158015610b71575f80fd5b505af1158015610b83573d5f803e3d5ffd5b5050604051632e61e43160e21b81525f92506001600160a01b037f000000000000000000000000000000000000000000000000000000000000000016915063b98790c490610bd7908c908c9060040161193f565b602060405180830381865afa158015610bf2573d5f803e3d5ffd5b505050506040513d601f19601f82011682018060405250810190610c169190611d65565b9050805f03610cb357604051633b21929d60e11b81526001600160a01b037f00000000000000000000000000000000000000000000000000000000000000001690637643253a90610c71908c908c908a908a90600401611d7c565b6020604051808303815f875af1158015610c8d573d5f803e3d5ffd5b505050506040513d601f19601f82011682018060405250810190610cb19190611d65565b505b82516040516325eedfe560e11b81526001600160a01b037f00000000000000000000000000000000000000000000000000000000000000001691634bddbfca91610d06918d918d91908890600401611dad565b5f604051808303815f87803b158015610d1d575f80fd5b505af1158015610d2f573d5f803e3d5ffd5b5050604051636e55429160e11b81526001600160a01b037f000000000000000000000000000000000000000000000000000000000000000016925063dcaa85229150610d81908c908c9060040161193f565b5f604051808303815f87803b158015610d98575f80fd5b505af1158015610daa573d5f803e3d5ffd5b5050604051339250610dc091508b908b90611b9a565b6040805191829003822085835260016020840152917f594c690024430c7ff293a73df629151985ce76db7a2ce8e3e581ffa5eb37a1ae910160405180910390a3505050505050505050565b604051630935e01b60e21b81523360048201527f00000000000000000000000000000000000000000000000000000000000000006001600160a01b0316906324d7806c90602401602060405180830381865afa158015610e6d573d5f803e3d5ffd5b505050506040513d601f19601f82011682018060405250810190610e9191906118fc565b610ead576040516282b42960e81b815260040160405180910390fd5b6040516327d348f160e11b81525f906001600160a01b037f00000000000000000000000000000000000000000000000000000000000000001690634fa691e290610efd908890889060040161193f565b5f60405180830381865afa158015610f17573d5f803e3d5ffd5b505050506040513d5f823e601f3d908101601f19168201604052610f3e9190810190611a08565b905080610180015115610f845760405162461bcd60e51b815260206004820152600e60248201526d105b1c9958591e481b5a5b9d195960921b604482015260640161036c565b6040518060800160405280336001600160a01b03168152602001426001600160401b031681526020015f1515815260200184848080601f0160208091040260200160405190810160405280939291908181526020018383808284375f920191909152505050915250604051600290610fff9088908890611b9a565b908152604080519182900360209081019092208351815493850151928501511515600160e01b0260ff60e01b196001600160401b03909416600160a01b026001600160e01b03199095166001600160a01b039092169190911793909317919091169190911781556060820151600182019061107a9082611c2d565b505060405163fa81ae3f60e01b81526001600160a01b037f000000000000000000000000000000000000000000000000000000000000000016915063fa81ae3f906110ce9088908890600590600401611cec565b5f604051808303815f87803b1580156110e5575f80fd5b505af11580156110f7573d5f803e3d5ffd5b505060405133925061110d915087908790611b9a565b604080519182900382205f8084526020840152917f594c690024430c7ff293a73df629151985ce76db7a2ce8e3e581ffa5eb37a1ae910160405180910390a35050505050565b6040516332a7f8db60e11b81523360048201527f00000000000000000000000000000000000000000000000000000000000000006001600160a01b03169063654ff1b690602401602060405180830381865afa1580156111b5573d5f803e3d5ffd5b505050506040513d601f19601f820116820180604052508101906111d991906118fc565b6111f5576040516282b42960e81b815260040160405180910390fd5b6040516327d348f160e11b81525f906001600160a01b037f00000000000000000000000000000000000000000000000000000000000000001690634fa691e290611245908990899060040161193f565b5f60405180830381865afa15801561125f573d5f803e3d5ffd5b505050506040513d5f823e601f3d908101601f191682016040526112869190810190611a08565b905060018160a0015160058111156112a0576112a0611b4b565b146112c7578060a001516001604051633bf2e2f960e11b815260040161036c929190611b7f565b5f86866040516112d8929190611b9a565b9081526040519081900360200190205460ff600160e01b90910416611310576040516388b1c32560e01b815260040160405180910390fd5b6040518060800160405280336001600160a01b03168152602001426001600160401b03168152602001831515815260200185858080601f0160208091040260200160405190810160405280939291908181526020018383808284375f92019190915250505091525060405160019061138b9089908990611b9a565b908152604080519182900360209081019092208351815493850151928501511515600160e01b0260ff60e01b196001600160401b03909416600160a01b026001600160e01b03199095166001600160a01b03909216919091179390931791909116919091178155606082015160018201906114069082611c2d565b5090505081156114935760405163fa81ae3f60e01b81526001600160a01b037f0000000000000000000000000000000000000000000000000000000000000000169063fa81ae3f906114619089908990600290600401611cec565b5f604051808303815f87803b158015611478575f80fd5b505af115801561148a573d5f803e3d5ffd5b50505050611512565b60405163fa81ae3f60e01b81526001600160a01b037f0000000000000000000000000000000000000000000000000000000000000000169063fa81ae3f906114e49089908990600590600401611cec565b5f604051808303815f87803b1580156114fb575f80fd5b505af115801561150d573d5f803e3d5ffd5b505050505b60405133906115249088908890611b9a565b6040519081900381208415158252907f4c80e92de060ec90a43600647374cb40030346c54c89efb820fa9560c79fd574906020016105be565b5f8083601f84011261156d575f80fd5b5081356001600160401b03811115611583575f80fd5b60208301915083602082850101111561159a575f80fd5b9250929050565b80151581146115ae575f80fd5b50565b5f805f805f606086880312156115c5575f80fd5b85356001600160401b03808211156115db575f80fd5b6115e789838a0161155d565b909750955060208801359150808211156115ff575f80fd5b5061160c8882890161155d565b9094509250506040860135611620816115a1565b809150509295509295909350565b634e487b7160e01b5f52604160045260245ffd5b6040516101a081016001600160401b03811182821017156116655761166561162e565b60405290565b604051601f8201601f191681016001600160401b03811182821017156116935761169361162e565b604052919050565b5f6001600160401b038211156116b3576116b361162e565b50601f01601f191660200190565b5f602082840312156116d1575f80fd5b81356001600160401b038111156116e6575f80fd5b8201601f810184136116f6575f80fd5b80356117096117048261169b565b61166b565b81815285602083850101111561171d575f80fd5b816020840160208301375f91810160200191909152949350505050565b5f5b8381101561175457818101518382015260200161173c565b50505f910152565b60018060a01b03851681526001600160401b03841660208201528215156040820152608060608201525f825180608084015261179f8160a085016020870161173a565b601f01601f19169190910160a00195945050505050565b5f80602083850312156117c7575f80fd5b82356001600160401b038111156117dc575f80fd5b6117e88582860161155d565b90969095509350505050565b5f805f805f8060608789031215611809575f80fd5b86356001600160401b038082111561181f575f80fd5b61182b8a838b0161155d565b90985096506020890135915080821115611843575f80fd5b61184f8a838b0161155d565b90965094506040890135915080821115611867575f80fd5b5061187489828a0161155d565b979a9699509497509295939492505050565b5f805f8060408587031215611899575f80fd5b84356001600160401b03808211156118af575f80fd5b6118bb8883890161155d565b909650945060208701359150808211156118d3575f80fd5b506118e08782880161155d565b95989497509550505050565b80516118f7816115a1565b919050565b5f6020828403121561190c575f80fd5b8151610708816115a1565b81835281816020850137505f828201602090810191909152601f909101601f19169091010190565b602081525f611952602083018486611917565b949350505050565b80516001600160a01b03811681146118f7575f80fd5b80516001600160401b03811681146118f7575f80fd5b8051600381900b81146118f7575f80fd5b805163ffffffff811681146118f7575f80fd5b8051600681106118f7575f80fd5b8051600481106118f7575f80fd5b5f82601f8301126119d5575f80fd5b81516119e36117048261169b565b8181528460208386010111156119f7575f80fd5b61195282602083016020870161173a565b5f60208284031215611a18575f80fd5b81516001600160401b0380821115611a2e575f80fd5b908301906101a08286031215611a42575f80fd5b611a4a611642565b611a538361195a565b8152611a6160208401611970565b6020820152611a7260408401611986565b6040820152611a8360608401611986565b6060820152611a9460808401611997565b6080820152611aa560a084016119aa565b60a0820152611ab660c084016119b8565b60c0820152611ac760e084016118ec565b60e0820152610100838101519082015261012080840151908201526101408084015183811115611af5575f80fd5b611b01888287016119c6565b8284015250506101608084015183811115611b1a575f80fd5b611b26888287016119c6565b8284015250506101809150611b3c8284016118ec565b91810191909152949350505050565b634e487b7160e01b5f52602160045260245ffd5b60068110611b7b57634e487b7160e01b5f52602160045260245ffd5b9052565b60408101611b8d8285611b5f565b6107086020830184611b5f565b818382375f9101908152919050565b600181811c90821680611bbd57607f821691505b602082108103611bdb57634e487b7160e01b5f52602260045260245ffd5b50919050565b601f821115611c2857805f5260205f20601f840160051c81016020851015611c065750805b601f840160051c820191505b81811015611c25575f8155600101611c12565b50505b505050565b81516001600160401b03811115611c4657611c4661162e565b611c5a81611c548454611ba9565b84611be1565b602080601f831160018114611c8d575f8415611c765750858301515b5f19600386901b1c1916600185901b178555611ce4565b5f85815260208120601f198616915b82811015611cbb57888601518255948401946001909101908401611c9c565b5085821015611cd857878501515f19600388901b60f8161c191681555b505060018460011b0185555b505050505050565b604081525f611cff604083018587611917565b90506119526020830184611b5f565b63ffffffff818116838216028082169190828114611d3a57634e487b7160e01b5f52601160045260245ffd5b505092915050565b604081525f611d55604083018587611917565b9050826020830152949350505050565b5f60208284031215611d75575f80fd5b5051919050565b604081525f611d8f604083018688611917565b8281036020840152611da2818587611917565b979650505050505050565b606081525f611dc0606083018688611917565b6001600160a01b0394909416602083015250604001529291505056fea2646970667358221220e3086835bf92991f4e223b02bdef6bc069ba580dea1e10197684f9590a6e949b64736f6c63430008180033",
  "linkReferences": {},
  "deployedLinkReferences": {}
}