{
  "_format": "hh-sol-artifact-1",
  "contractName": "CarbonMarketplace",
  "sourceName": "contracts/CarbonMarketplace.sol",
  "abi": [
    {
      "inputs": [
        {
          "internalType": "address",
          "name": "_accessManager",
          "type": "address"
        },
        {
          "internalType": "address",
          "name": "_carbonToken",
          "type": "address"
        },
        {
          "internalType": "address",
          "name": "_carbonEscrow",
          "type": "address"
        }
      ],
      "stateMutability": "nonpayable",
      "type": "constructor"
    },
    {
      "inputs": [],
      "name": "InsufficientPayment",
      "type": "error"
    },
    {
      "inputs": [],
      "name": "InsufficientStock",
      "type": "error"
    },
    {
      "inputs": [],
      "name": "InvalidAmount",
      "type": "error"
    },
    {
      "inputs": [],
      "name": "InvalidPrice",
      "type": "error"
    },
    {
      "inputs": [],
      "name": "InvalidRecipient",
      "type": "error"
    },
    {
      "inputs": [],
      "name": "ListingNotActive",
      "type": "error"
    },
    {
      "inputs": [],
      "name": "NotListingOwner",
      "type": "error"
    },
    {
      "inputs": [],
      "name": "ReentrancyGuardReentrantCall",
      "type": "error"
    },
    {
      "inputs": [
        {
          "internalType": "address",
          "name": "token",
          "type": "address"
        }
      ],
      "name": "SafeERC20FailedOperation",
      "type": "error"
    },
    {
      "inputs": [],
      "name": "TransferFailed",
      "type": "error"
    },
    {
      "inputs": [],
      "name": "Unauthorized",
      "type": "error"
    },
    {
      "anonymous": false,
      "inputs": [
        {
          "indexed": true,
          "internalType": "uint256",
          "name": "listingId",
          "type": "uint256"
        }
      ],
      "name": "ListingCancelled",
      "type": "event"
    },
    {
      "anonymous": false,
      "inputs": [
        {
          "indexed": true,
          "internalType": "uint256",
          "name": "listingId",
          "type": "uint256"
        },
        {
          "indexed": true,
          "internalType": "address",
          "name": "seller",
          "type": "address"
        },
        {
          "indexed": false,
          "internalType": "address",
          "name": "paymentToken",
          "type": "address"
        },
        {
          "indexed": false,
          "internalType": "uint256",
          "name": "tokenId",
          "type": "uint256"
        },
        {
          "indexed": false,
          "internalType": "uint256",
          "name": "amount",
          "type": "uint256"
        },
        {
          "indexed": false,
          "internalType": "uint256",
          "name": "price",
          "type": "uint256"
        }
      ],
      "name": "ListingCreated",
      "type": "event"
    },
    {
      "anonymous": false,
      "inputs": [
        {
          "indexed": true,
          "internalType": "uint256",
          "name": "listingId",
          "type": "uint256"
        },
        {
          "indexed": true,
          "internalType": "address",
          "name": "buyer",
          "type": "address"
        },
        {
          "indexed": false,
          "internalType": "uint256",
          "name": "amount",
          "type": "uint256"
        },
        {
          "indexed": false,
          "internalType": "uint256",
          "name": "totalPrice",
          "type": "uint256"
        },
        {
          "indexed": false,
          "internalType": "uint256",
          "name": "escrowId",
          "type": "uint256"
        }
      ],
      "name": "TradeExecuted",
      "type": "event"
    },
    {
      "inputs": [],
      "name": "access",
      "outputs": [
        {
          "internalType": "contract IAccessControlManager",
          "name": "",
          "type": "address"
        }
      ],
      "stateMutability": "view",
      "type": "function"
    },
    {
      "inputs": [
        {
          "internalType": "uint256",
          "name": "listingId",
          "type": "uint256"
        },
        {
          "internalType": "uint256",
          "name": "amount",
          "type": "uint256"
        }
      ],
      "name": "buyCredits",
      "outputs": [],
      "stateMutability": "payable",
      "type": "function"
    },
    {
      "inputs": [
        {
          "internalType": "uint256",
          "name": "listingId",
          "type": "uint256"
        }
      ],
      "name": "cancelListing",
      "outputs": [],
      "stateMutability": "nonpayable",
      "type": "function"
    },
    {
      "inputs": [],
      "name": "carbonEscrow",
      "outputs": [
        {
          "internalType": "contract CarbonEscrow",
          "name": "",
          "type": "address"
        }
      ],
      "stateMutability": "view",
      "type": "function"
    },
    {
      "inputs": [],
      "name": "carbonToken",
      "outputs": [
        {
          "internalType": "contract CarbonCreditToken",
          "name": "",
          "type": "address"
        }
      ],
      "stateMutability": "view",
      "type": "function"
    },
    {
      "inputs": [
        {
          "internalType": "uint256",
          "name": "tokenId",
          "type": "uint256"
        },
        {
          "internalType": "uint256",
          "name": "amount",
          "type": "uint256"
        },
        {
          "internalType": "uint256",
          "name": "pricePerCredit",
          "type": "uint256"
        },
        {
          "internalType": "address",
          "name": "paymentToken",
          "type": "address"
        }
      ],
      "name": "listCredits",
      "outputs": [
        {
          "internalType": "uint256",
          "name": "",
          "type": "uint256"
        }
      ],
      "stateMutability": "nonpayable",
      "type": "function"
    },
    {
      "inputs": [
        {
          "internalType": "uint256",
          "name": "",
          "type": "uint256"
        }
      ],
      "name": "listings",
      "outputs": [
        {
          "internalType": "address",
          "name": "seller",
          "type": "address"
        },
        {
          "internalType": "address",
          "name": "paymentToken",
          "type": "address"
        },
        {
          "internalType": "uint256",
          "name": "tokenId",
          "type": "uint256"
        },
        {
          "internalType": "uint256",
          "name": "amount",
          "type": "uint256"
        },
        {
          "internalType": "uint256",
          "name": "pricePerCredit",
          "type": "uint256"
        },
        {
          "internalType": "bool",
          "name": "active",
          "type": "bool"
        }
      ],
      "stateMutability": "view",
      "type": "function"
    },
    {
      "inputs": [
        {
          "internalType": "address",
          "name": "",
          "type": "address"
        },
        {
          "internalType": "address",
          "name": "",
          "type": "address"
        },
        {
          "internalType": "uint256[]",
          "name": "",
          "type": "uint256[]"
        },
        {
          "internalType": "uint256[]",
          "name": "",
          "type": "uint256[]"
        },
        {
          "internalType": "bytes",
          "name": "",
          "type": "bytes"
        }
      ],
      "name": "onERC1155BatchReceived",
      "outputs": [
        {
          "internalType": "bytes4",
          "name": "",
          "type": "bytes4"
        }
      ],
      "stateMutability": "nonpayable",
      "type": "function"
    },
    {
      "inputs": [
        {
          "internalType": "address",
          "name": "",
          "type": "address"
        },
        {
          "internalType": "address",
          "name": "",
          "type": "address"
        },
        {
          "internalType": "uint256",
          "name": "",
          "type": "uint256"
        },
        {
          "internalType": "uint256",
          "name": "",
          "type": "uint256"
        },
        {
          "internalType": "bytes",
          "name": "",
          "type": "bytes"
        }
      ],
      "name": "onERC1155Received",
      "outputs": [
        {
          "internalType": "bytes4",
          "name": "",
          "type": "bytes4"
        }
      ],
      "stateMutability": "nonpayable",
      "type": "function"
    },
    {
      "inputs": [
        {
          "internalType": "bytes4",
          "name": "interfaceId",
          "type": "bytes4"
        }
      ],
      "name": "supportsInterface",
      "outputs": [
        {
          "internalType": "bool",
          "name": "",
          "type": "bool"
        }
      ],
      "stateMutability": "view",
      "type": "function"
    }
  ],
  "bytecode": "0x60e060405234801562000010575f80fd5b5060405162001338380380620013388339810160408190526200003391620000c1565b60015f556001600160a01b03831615806200005557506001600160a01b038216155b806200006857506001600160a01b038116155b156200008757604051634e46966960e11b815260040160405180910390fd5b6001600160a01b0392831660805290821660a0521660c05262000108565b80516001600160a01b0381168114620000bc575f80fd5b919050565b5f805f60608486031215620000d4575f80fd5b620000df84620000a5565b9250620000ef60208501620000a5565b9150620000ff60408501620000a5565b90509250925092565b60805160a05160c0516111bf620001795f395f81816101b7015281816105c60152818161071001526107c601525f818161015701528181610441015281816108810152610b5501525f818161010c0152818161035701528181610954015281816109e10152610a6f01526111bf5ff3fe60806040526004361061008f575f3560e01c80638fc67180116100575780638fc6718014610179578063b94cf58c146101a6578063bc197c81146101d9578063de74e57b1461021d578063f23a6e61146102b7575f80fd5b806301ffc9a714610093578063305a67a8146100c7578063479c8457146100e857806371907f17146100fb57806382a71ef214610146575b5f80fd5b34801561009e575f80fd5b506100b26100ad366004610dd9565b6102e2565b60405190151581526020015b60405180910390f35b3480156100d2575f80fd5b506100e66100e1366004610e07565b610318565b005b6100e66100f6366004610e1e565b6104e3565b348015610106575f80fd5b5061012e7f000000000000000000000000000000000000000000000000000000000000000081565b6040516001600160a01b0390911681526020016100be565b348015610151575f80fd5b5061012e7f000000000000000000000000000000000000000000000000000000000000000081565b348015610184575f80fd5b50610198610193366004610e59565b61093d565b6040519081526020016100be565b3480156101b1575f80fd5b5061012e7f000000000000000000000000000000000000000000000000000000000000000081565b3480156101e4575f80fd5b506102046101f3366004610fc3565b63bc197c8160e01b95945050505050565b6040516001600160e01b031990911681526020016100be565b348015610228575f80fd5b5061027d610237366004610e07565b600260208190525f91825260409091208054600182015492820154600383015460048401546005909401546001600160a01b039384169590931693919290919060ff1686565b604080516001600160a01b0397881681529690951660208701529385019290925260608401526080830152151560a082015260c0016100be565b3480156102c2575f80fd5b506102046102d1366004611066565b63f23a6e6160e01b95945050505050565b5f6001600160e01b03198216630271189760e51b148061031257506301ffc9a760e01b6001600160e01b03198316145b92915050565b610320610ce1565b5f81815260026020526040902080546001600160a01b031633148015906103ca5750604051630935e01b60e21b81523360048201527f00000000000000000000000000000000000000000000000000000000000000006001600160a01b0316906324d7806c90602401602060405180830381865afa1580156103a4573d5f803e3d5ffd5b505050506040513d601f19601f820116820180604052508101906103c891906110c6565b155b156103e857604051637c62d69f60e01b815260040160405180910390fd5b600581015460ff1661040d576040516366cb03e960e01b815260040160405180910390fd5b60058101805460ff191690556003810180545f90915581546002830154604051637921219560e11b81526001600160a01b037f000000000000000000000000000000000000000000000000000000000000000081169363f242432a9361047e933093929092169187906004016110e5565b5f604051808303815f87803b158015610495575f80fd5b505af11580156104a7573d5f803e3d5ffd5b50506040518592507f411aee90354c51b1b04cd563fcab2617142a9d50da19232d888547c8a1b7fd8a91505f90a250506104e060015f55565b50565b6104eb610ce1565b5f828152600260205260409020600581015460ff1661051d576040516366cb03e960e01b815260040160405180910390fd5b806003015482111561054257604051630f00e02160e01b815260040160405180910390fd5b5f8160040154836105539190611130565b60018301549091505f906001600160a01b03166106bb578134101561058b5760405163cd1c886760e01b815260040160405180910390fd5b825460018401546040516305f324c360e41b81523360048201526001600160a01b0392831660248201529082166044820152606481018490527f000000000000000000000000000000000000000000000000000000000000000090911690635f324c3090849060840160206040518083038185885af1158015610610573d5f803e3d5ffd5b50505050506040513d601f19601f820116820180604052508101906106359190611147565b9050813411156106b6575f61064a833461115e565b6040519091505f90339083908381818185875af1925050503d805f811461068c576040519150601f19603f3d011682016040523d82523d5f602084013e610691565b606091505b50509050806106b3576040516312171d8360e31b815260040160405180910390fd5b50505b610835565b34156106da5760405163cd1c886760e01b815260040160405180910390fd5b60018301546106f4906001600160a01b0316333085610d09565b600183015460405163095ea7b360e01b81526001600160a01b037f000000000000000000000000000000000000000000000000000000000000000081166004830152602482018590529091169063095ea7b3906044016020604051808303815f875af1158015610766573d5f803e3d5ffd5b505050506040513d601f19601f8201168201806040525081019061078a91906110c6565b50825460018401546040516305f324c360e41b81523360048201526001600160a01b0392831660248201529082166044820152606481018490527f000000000000000000000000000000000000000000000000000000000000000090911690635f324c30906084016020604051808303815f875af115801561080e573d5f803e3d5ffd5b505050506040513d601f19601f820116820180604052508101906108329190611147565b90505b83836003015f828254610848919061115e565b909155505060038301545f036108655760058301805460ff191690555b6002830154604051637921219560e11b81526001600160a01b037f0000000000000000000000000000000000000000000000000000000000000000169163f242432a916108bb9130913391908a906004016110e5565b5f604051808303815f87803b1580156108d2575f80fd5b505af11580156108e4573d5f803e3d5ffd5b505060408051878152602081018690529081018490523392508791507f9122d5294497fa3f6c2b068c49d0560dfd79f3411d0b8a73f8f029cec88919349060600160405180910390a350505061093960015f55565b5050565b604051631d23861960e01b81523360048201525f907f00000000000000000000000000000000000000000000000000000000000000006001600160a01b031690631d23861990602401602060405180830381865afa1580156109a1573d5f803e3d5ffd5b505050506040513d601f19601f820116820180604052508101906109c591906110c6565b158015610a53575060405162114a1760e21b81523360048201527f00000000000000000000000000000000000000000000000000000000000000006001600160a01b0316906245285c90602401602060405180830381865afa158015610a2d573d5f803e3d5ffd5b505050506040513d601f19601f82011682018060405250810190610a5191906110c6565b155b8015610ae25750604051630935e01b60e21b81523360048201527f00000000000000000000000000000000000000000000000000000000000000006001600160a01b0316906324d7806c90602401602060405180830381865afa158015610abc573d5f803e3d5ffd5b505050506040513d601f19601f82011682018060405250810190610ae091906110c6565b155b15610aff576040516282b42960e81b815260040160405180910390fd5b835f03610b1f5760405163162908e360e11b815260040160405180910390fd5b825f03610b3e5760405162bfc92160e01b815260040160405180910390fd5b604051637921219560e11b81526001600160a01b037f0000000000000000000000000000000000000000000000000000000000000000169063f242432a90610b9090339030908a908a906004016110e5565b5f604051808303815f87803b158015610ba7575f80fd5b505af1158015610bb9573d5f803e3d5ffd5b505060018054925090505f610bcd83611171565b9091555050600180546040805160c081018252338082526001600160a01b0387811660208085019182528486018d8152606086018d8152608087018d815260a088018b81525f8b81526002958690528a9020985189549088166001600160a01b0319918216178a5595519b890180549c9097169b9095169a909a179094555190850155905160038401559451600483015593516005909101805491151560ff199092169190911790555190919082907fceefd288ffab0a6f307ce9214d4c1fc1acd67f807eaaf54806e3a1158128db1490610cd09087908b908b908b906001600160a01b0394909416845260208401929092526040830152606082015260800190565b60405180910390a395945050505050565b60025f5403610d0357604051633ee5aeb560e01b815260040160405180910390fd5b60025f55565b604080516001600160a01b0385811660248301528416604482015260648082018490528251808303909101815260849091019091526020810180516001600160e01b03166323b872dd60e01b179052610d63908590610d69565b50505050565b5f8060205f8451602086015f885af180610d88576040513d5f823e3d81fd5b50505f513d91508115610d9f578060011415610dac565b6001600160a01b0384163b155b15610d6357604051635274afe760e01b81526001600160a01b038516600482015260240160405180910390fd5b5f60208284031215610de9575f80fd5b81356001600160e01b031981168114610e00575f80fd5b9392505050565b5f60208284031215610e17575f80fd5b5035919050565b5f8060408385031215610e2f575f80fd5b50508035926020909101359150565b80356001600160a01b0381168114610e54575f80fd5b919050565b5f805f8060808587031215610e6c575f80fd5b843593506020850135925060408501359150610e8a60608601610e3e565b905092959194509250565b634e487b7160e01b5f52604160045260245ffd5b604051601f8201601f1916810167ffffffffffffffff81118282101715610ed257610ed2610e95565b604052919050565b5f82601f830112610ee9575f80fd5b8135602067ffffffffffffffff821115610f0557610f05610e95565b8160051b610f14828201610ea9565b9283528481018201928281019087851115610f2d575f80fd5b83870192505b84831015610f4c57823582529183019190830190610f33565b979650505050505050565b5f82601f830112610f66575f80fd5b813567ffffffffffffffff811115610f8057610f80610e95565b610f93601f8201601f1916602001610ea9565b818152846020838601011115610fa7575f80fd5b816020850160208301375f918101602001919091529392505050565b5f805f805f60a08688031215610fd7575f80fd5b610fe086610e3e565b9450610fee60208701610e3e565b9350604086013567ffffffffffffffff8082111561100a575f80fd5b61101689838a01610eda565b9450606088013591508082111561102b575f80fd5b61103789838a01610eda565b9350608088013591508082111561104c575f80fd5b5061105988828901610f57565b9150509295509295909350565b5f805f805f60a0868803121561107a575f80fd5b61108386610e3e565b945061109160208701610e3e565b93506040860135925060608601359150608086013567ffffffffffffffff8111156110ba575f80fd5b61105988828901610f57565b5f602082840312156110d6575f80fd5b81518015158114610e00575f80fd5b6001600160a01b0394851681529290931660208301526040820152606081019190915260a0608082018190525f9082015260c00190565b634e487b7160e01b5f52601160045260245ffd5b80820281158282048414176103125761031261111c565b5f60208284031215611157575f80fd5b5051919050565b818103818111156103125761031261111c565b5f600182016111825761118261111c565b506001019056fea264697066735822122008bcbc401bfcfc85b40228a18ce23adc61bbc12c6b911641ca7da3ff26c5b23364736f6c63430008180033",
  "linkReferences": {},
  "deployedLinkReferences": {}
}