{
  "_format": "hh-sol-artifact-1",
  "contractName": "CarbonEscrow",
  "sourceName": "contracts/CarbonEscrow.sol",
  "abi": [
    {
      "inputs": [
        {
          "internalType": "address",
          "name": "_accessManager",
          "type": "address"
        }
      ],
      "stateMutability": "nonpayable",
      "type": "constructor"
    },
    {
      "inputs": [],
      "name": "EscrowNotPending",
      "type": "error"
    },
    {
      "inputs": [],
      "name": "InvalidAddress",
      "type": "error"
    },
    {
      "inputs": [],
      "name": "InvalidAmount",
      "type": "error"
    },
    {
      "inputs": [],
      "name": "ReentrancyGuardReentrantCall",
      "type": "error"
    },
    {
      "inputs": [
        {
          "internalType": "address",
          "name": "token",
          "type": "address"
        }
      ],
      "name": "SafeERC20FailedOperation",
      "type": "error"
    },
    {
      "inputs": [],
      "name": "TransferFailed",
      "type": "error"
    },
    {
      "inputs": [],
      "name": "Unauthorized",
      "type": "error"
    },
    {
      "inputs": [],
      "name": "UnsupportedToken",
      "type": "error"
    },
    {
      "anonymous": false,
      "inputs": [
        {
          "indexed": true,
          "internalType": "uint256",
          "name": "escrowId",
          "type": "uint256"
        },
        {
          "indexed": true,
          "internalType": "address",
          "name": "seller",
          "type": "address"
        },
        {
          "indexed": false,
          "internalType": "uint256",
          "name": "amount",
          "type": "uint256"
        }
      ],
      "name": "EscrowCompleted",
      "type": "event"
    },
    {
      "anonymous": false,
      "inputs": [
        {
          "indexed": true,
          "internalType": "uint256",
          "name": "escrowId",
          "type": "uint256"
        },
        {
          "indexed": true,
          "internalType": "address",
          "name": "buyer",
          "type": "address"
        },
        {
          "indexed": true,
          "internalType": "address",
          "name": "seller",
          "type": "address"
        },
        {
          "indexed": false,
          "internalType": "address",
          "name": "paymentToken",
          "type": "address"
        },
        {
          "indexed": false,
          "internalType": "uint256",
          "name": "amount",
          "type": "uint256"
        }
      ],
      "name": "EscrowCreated",
      "type": "event"
    },
    {
      "anonymous": false,
      "inputs": [
        {
          "indexed": true,
          "internalType": "uint256",
          "name": "escrowId",
          "type": "uint256"
        },
        {
          "indexed": true,
          "internalType": "address",
          "name": "buyer",
          "type": "address"
        },
        {
          "indexed": false,
          "internalType": "uint256",
          "name": "amount",
          "type": "uint256"
        }
      ],
      "name": "EscrowRefunded",
      "type": "event"
    },
    {
      "inputs": [],
      "name": "access",
      "outputs": [
        {
          "internalType": "contract IAccessControlManager",
          "name": "",
          "type": "address"
        }
      ],
      "stateMutability": "view",
      "type": "function"
    },
    {
      "inputs": [
        {
          "internalType": "address",
          "name": "buyer",
          "type": "address"
        },
        {
          "internalType": "address",
          "name": "seller",
          "type": "address"
        },
        {
          "internalType": "address",
          "name": "paymentToken",
          "type": "address"
        },
        {
          "internalType": "uint256",
          "name": "tokenAmount",
          "type": "uint256"
        }
      ],
      "name": "createEscrow",
      "outputs": [
        {
          "internalType": "uint256",
          "name": "",
          "type": "uint256"
        }
      ],
      "stateMutability": "payable",
      "type": "function"
    },
    {
      "inputs": [
        {
          "internalType": "uint256",
          "name": "",
          "type": "uint256"
        }
      ],
      "name": "escrows",
      "outputs": [
        {
          "internalType": "address",
          "name": "buyer",
          "type": "address"
        },
        {
          "internalType": "address",
          "name": "seller",
          "type": "address"
        },
        {
          "internalType": "address",
          "name": "paymentToken",
          "type": "address"
        },
        {
          "internalType": "uint256",
          "name": "amount",
          "type": "uint256"
        },
        {
          "internalType": "enum CarbonEscrow.EscrowStatus",
          "name": "status",
          "type": "uint8"
        }
      ],
      "stateMutability": "view",
      "type": "function"
    },
    {
      "inputs": [
        {
          "internalType": "uint256",
          "name": "escrowId",
          "type": "uint256"
        }
      ],
      "name": "refundEscrow",
      "outputs": [],
      "stateMutability": "nonpayable",
      "type": "function"
    },
    {
      "inputs": [
        {
          "internalType": "uint256",
          "name": "escrowId",
          "type": "uint256"
        }
      ],
      "name": "releaseEscrow",
      "outputs": [],
      "stateMutability": "nonpayable",
      "type": "function"
    }
  ],
  "bytecode": "0x60a060405234801561000f575f80fd5b50604051610ac8380380610ac883398101604081905261002e9161006a565b60015f556001600160a01b0381166100595760405163e6c4247b60e01b815260040160405180910390fd5b6001600160a01b0316608052610097565b5f6020828403121561007a575f80fd5b81516001600160a01b0381168114610090575f80fd5b9392505050565b608051610a0b6100bd5f395f81816101140152818161018201526105880152610a0b5ff3fe608060405260043610610049575f3560e01c8063012f52ee1461004d578063356f9dfd146100c15780635f324c30146100e257806371907f1714610103578063ed6531641461014e575b5f80fd5b348015610058575f80fd5b506100a76100673660046108aa565b600260208190525f9182526040909120805460018201549282015460038301546004909301546001600160a01b0392831694831693919092169160ff1685565b6040516100b89594939291906108d5565b60405180910390f35b3480156100cc575f80fd5b506100e06100db3660046108aa565b61016d565b005b6100f56100f0366004610943565b610372565b6040519081526020016100b8565b34801561010e575f80fd5b506101367f000000000000000000000000000000000000000000000000000000000000000081565b6040516001600160a01b0390911681526020016100b8565b348015610159575f80fd5b506100e06101683660046108aa565b610573565b604051630935e01b60e21b81523360048201527f00000000000000000000000000000000000000000000000000000000000000006001600160a01b0316906324d7806c90602401602060405180830381865afa1580156101cf573d5f803e3d5ffd5b505050506040513d601f19601f820116820180604052508101906101f3919061098b565b61020f576040516282b42960e81b815260040160405180910390fd5b61021761076f565b5f81815260026020526040812090600482015460ff16600281111561023e5761023e6108c1565b1461025c5760405163291db2cb60e11b815260040160405180910390fd5b60048101805460ff191660029081179091558101546001600160a01b03166102f857805460038201546040515f926001600160a01b031691908381818185875af1925050503d805f81146102cb576040519150601f19603f3d011682016040523d82523d5f602084013e6102d0565b606091505b50509050806102f2576040516312171d8360e31b815260040160405180910390fd5b5061031c565b80546003820154600283015461031c926001600160a01b0391821692911690610797565b805460038201546040519081526001600160a01b039091169083907feac97bc1917fcedc984e3d0671d4e83b359890323d5d1c2de32b28d17c356ced906020015b60405180910390a35061036f60015f55565b50565b5f61037b61076f565b6001600160a01b038416158061039857506001600160a01b038516155b156103b65760405163e6c4247b60e01b815260040160405180910390fd5b5f6001600160a01b0384166103ec57345f036103e55760405163162908e360e11b815260040160405180910390fd5b5034610442565b825f0361040c5760405163162908e360e11b815260040160405180910390fd5b341561042b5760405163162908e360e11b815260040160405180910390fd5b50816104426001600160a01b0385163330846107fb565b60018054905f610451836109b1565b9091555050600180546040805160a0810182526001600160a01b038a8116825289811660208084019182528a8316848601908152606085018981525f60808701818152898252600294859052979020865181549087166001600160a01b03199182161782559451818b01805491881691871691909117905591518284018054919096169416939093179093559051600383015592516004820180549596939592949193909260ff191691849081111561050c5761050c6108c1565b021790555050604080516001600160a01b03888116825260208201869052808a1693508a169184917fcaf993c592f602a7d225c8556e07d471f93e7c0f2609647024e59018f5a521ac910160405180910390a491505061056b60015f55565b949350505050565b604051630935e01b60e21b81523360048201527f00000000000000000000000000000000000000000000000000000000000000006001600160a01b0316906324d7806c90602401602060405180830381865afa1580156105d5573d5f803e3d5ffd5b505050506040513d601f19601f820116820180604052508101906105f9919061098b565b610615576040516282b42960e81b815260040160405180910390fd5b61061d61076f565b5f81815260026020526040812090600482015460ff166002811115610644576106446108c1565b146106625760405163291db2cb60e11b815260040160405180910390fd5b60048101805460ff1916600117905560028101546001600160a01b031661070057600181015460038201546040515f926001600160a01b031691908381818185875af1925050503d805f81146106d3576040519150601f19603f3d011682016040523d82523d5f602084013e6106d8565b606091505b50509050806106fa576040516312171d8360e31b815260040160405180910390fd5b50610727565b600181015460038201546002830154610727926001600160a01b0391821692911690610797565b600181015460038201546040519081526001600160a01b039091169083907f26c6863587332cefc2b323800ae3340bd094735ffa447072bf163101739e7df49060200161035d565b60025f540361079157604051633ee5aeb560e01b815260040160405180910390fd5b60025f55565b6040516001600160a01b038381166024830152604482018390526107f691859182169063a9059cbb906064015b604051602081830303815290604052915060e01b6020820180516001600160e01b03838183161783525050505061083a565b505050565b6040516001600160a01b0384811660248301528381166044830152606482018390526108349186918216906323b872dd906084016107c4565b50505050565b5f8060205f8451602086015f885af180610859576040513d5f823e3d81fd5b50505f513d9150811561087057806001141561087d565b6001600160a01b0384163b155b1561083457604051635274afe760e01b81526001600160a01b038516600482015260240160405180910390fd5b5f602082840312156108ba575f80fd5b5035919050565b634e487b7160e01b5f52602160045260245ffd5b6001600160a01b0386811682528581166020830152841660408201526060810183905260a081016003831061091857634e487b7160e01b5f52602160045260245ffd5b8260808301529695505050505050565b80356001600160a01b038116811461093e575f80fd5b919050565b5f805f8060808587031215610956575f80fd5b61095f85610928565b935061096d60208601610928565b925061097b60408601610928565b9396929550929360600135925050565b5f6020828403121561099b575f80fd5b815180151581146109aa575f80fd5b9392505050565b5f600182016109ce57634e487b7160e01b5f52601160045260245ffd5b506001019056fea2646970667358221220ea545390c83391dea6a6edc08267885772473f3ac893ee69b384576c772db2af64736f6c63430008180033",
  "linkReferences": {},
  "deployedLinkReferences": {}
}