{
  "_format": "hh-sol-artifact-1",
  "contractName": "CarbonCreditToken",
  "sourceName": "contracts/CarbonCreditToken.sol",
  "abi": [
    {
      "inputs": [
        {
          "internalType": "address",
          "name": "_accessManager",
          "type": "address"
        }
      ],
      "stateMutability": "nonpayable",
      "type": "constructor"
    },
    {
      "inputs": [
        {
          "internalType": "address",
          "name": "sender",
          "type": "address"
        },
        {
          "internalType": "uint256",
          "name": "balance",
          "type": "uint256"
        },
        {
          "internalType": "uint256",
          "name": "needed",
          "type": "uint256"
        },
        {
          "internalType": "uint256",
          "name": "tokenId",
          "type": "uint256"
        }
      ],
      "name": "ERC1155InsufficientBalance",
      "type": "error"
    },
    {
      "inputs": [
        {
          "internalType": "address",
          "name": "approver",
          "type": "address"
        }
      ],
      "name": "ERC1155InvalidApprover",
      "type": "error"
    },
    {
      "inputs": [
        {
          "internalType": "uint256",
          "name": "idsLength",
          "type": "uint256"
        },
        {
          "internalType": "uint256",
          "name": "valuesLength",
          "type": "uint256"
        }
      ],
      "name": "ERC1155InvalidArrayLength",
      "type": "error"
    },
    {
      "inputs": [
        {
          "internalType": "address",
          "name": "operator",
          "type": "address"
        }
      ],
      "name": "ERC1155InvalidOperator",
      "type": "error"
    },
    {
      "inputs": [
        {
          "internalType": "address",
          "name": "receiver",
          "type": "address"
        }
      ],
      "name": "ERC1155InvalidReceiver",
      "type": "error"
    },
    {
      "inputs": [
        {
          "internalType": "address",
          "name": "sender",
          "type": "address"
        }
      ],
      "name": "ERC1155InvalidSender",
      "type": "error"
    },
    {
      "inputs": [
        {
          "internalType": "address",
          "name": "operator",
          "type": "address"
        },
        {
          "internalType": "address",
          "name": "owner",
          "type": "address"
        }
      ],
      "name": "ERC1155MissingApprovalForAll",
      "type": "error"
    },
    {
      "inputs": [
        {
          "internalType": "address",
          "name": "account",
          "type": "address"
        },
        {
          "internalType": "uint256",
          "name": "tokenId",
          "type": "uint256"
        },
        {
          "internalType": "uint256",
          "name": "balance",
          "type": "uint256"
        }
      ],
      "name": "InsufficientBalance",
      "type": "error"
    },
    {
      "inputs": [],
      "name": "InvalidAddress",
      "type": "error"
    },
    {
      "inputs": [
        {
          "internalType": "string",
          "name": "projectId",
          "type": "string"
        }
      ],
      "name": "ProjectAlreadyExists",
      "type": "error"
    },
    {
      "inputs": [
        {
          "internalType": "string",
          "name": "projectId",
          "type": "string"
        }
      ],
      "name": "ProjectDoesNotExist",
      "type": "error"
    },
    {
      "inputs": [],
      "name": "Unauthorized",
      "type": "error"
    },
    {
      "anonymous": false,
      "inputs": [
        {
          "indexed": true,
          "internalType": "address",
          "name": "account",
          "type": "address"
        },
        {
          "indexed": true,
          "internalType": "address",
          "name": "operator",
          "type": "address"
        },
        {
          "indexed": false,
          "internalType": "bool",
          "name": "approved",
          "type": "bool"
        }
      ],
      "name": "ApprovalForAll",
      "type": "event"
    },
    {
      "anonymous": false,
      "inputs": [
        {
          "indexed": true,
          "internalType": "uint256",
          "name": "tokenId",
          "type": "uint256"
        },
        {
          "indexed": true,
          "internalType": "address",
          "name": "recipient",
          "type": "address"
        },
        {
          "indexed": false,
          "internalType": "uint256",
          "name": "amount",
          "type": "uint256"
        }
      ],
      "name": "CreditsMinted",
      "type": "event"
    },
    {
      "anonymous": false,
      "inputs": [
        {
          "indexed": true,
          "internalType": "uint256",
          "name": "tokenId",
          "type": "uint256"
        },
        {
          "indexed": true,
          "internalType": "address",
          "name": "account",
          "type": "address"
        },
        {
          "indexed": false,
          "internalType": "uint256",
          "name": "amount",
          "type": "uint256"
        }
      ],
      "name": "CreditsRetired",
      "type": "event"
    },
    {
      "anonymous": false,
      "inputs": [
        {
          "indexed": true,
          "internalType": "uint256",
          "name": "tokenId",
          "type": "uint256"
        },
        {
          "indexed": true,
          "internalType": "string",
          "name": "projectId",
          "type": "string"
        }
      ],
      "name": "ProjectTokenCreated",
      "type": "event"
    },
    {
      "anonymous": false,
      "inputs": [
        {
          "indexed": true,
          "internalType": "address",
          "name": "operator",
          "type": "address"
        },
        {
          "indexed": true,
          "internalType": "address",
          "name": "from",
          "type": "address"
        },
        {
          "indexed": true,
          "internalType": "address",
          "name": "to",
          "type": "address"
        },
        {
          "indexed": false,
          "internalType": "uint256[]",
          "name": "ids",
          "type": "uint256[]"
        },
        {
          "indexed": false,
          "internalType": "uint256[]",
          "name": "values",
          "type": "uint256[]"
        }
      ],
      "name": "TransferBatch",
      "type": "event"
    },
    {
      "anonymous": false,
      "inputs": [
        {
          "indexed": true,
          "internalType": "address",
          "name": "operator",
          "type": "address"
        },
        {
          "indexed": true,
          "internalType": "address",
          "name": "from",
          "type": "address"
        },
        {
          "indexed": true,
          "internalType": "address",
          "name": "to",
          "type": "address"
        },
        {
          "indexed": false,
          "internalType": "uint256",
          "name": "id",
          "type": "uint256"
        },
        {
          "indexed": false,
          "internalType": "uint256",
          "name": "value",
          "type": "uint256"
        }
      ],
      "name": "TransferSingle",
      "type": "event"
    },
    {
      "anonymous": false,
      "inputs": [
        {
          "indexed": false,
          "internalType": "string",
          "name": "value",
          "type": "string"
        },
        {
          "indexed": true,
          "internalType": "uint256",
          "name": "id",
          "type": "uint256"
        }
      ],
      "name": "URI",
      "type": "event"
    },
    {
      "inputs": [],
      "name": "access",
      "outputs": [
        {
          "internalType": "contract IAccessControlManager",
          "name": "",
          "type": "address"
        }
      ],
      "stateMutability": "view",
      "type": "function"
    },
    {
      "inputs": [
        {
          "internalType": "address",
          "name": "account",
          "type": "address"
        },
        {
          "internalType": "uint256",
          "name": "id",
          "type": "uint256"
        }
      ],
      "name": "balanceOf",
      "outputs": [
        {
          "internalType": "uint256",
          "name": "",
          "type": "uint256"
        }
      ],
      "stateMutability": "view",
      "type": "function"
    },
    {
      "inputs": [
        {
          "internalType": "address[]",
          "name": "accounts",
          "type": "address[]"
        },
        {
          "internalType": "uint256[]",
          "name": "ids",
          "type": "uint256[]"
        }
      ],
      "name": "balanceOfBatch",
      "outputs": [
        {
          "internalType": "uint256[]",
          "name": "",
          "type": "uint256[]"
        }
      ],
      "stateMutability": "view",
      "type": "function"
    },
    {
      "inputs": [
        {
          "internalType": "address",
          "name": "account",
          "type": "address"
        },
        {
          "internalType": "uint256",
          "name": "tokenId",
          "type": "uint256"
        },
        {
          "internalType": "uint256",
          "name": "amount",
          "type": "uint256"
        }
      ],
      "name": "burnFrom",
      "outputs": [],
      "stateMutability": "nonpayable",
      "type": "function"
    },
    {
      "inputs": [
        {
          "internalType": "string",
          "name": "projectId",
          "type": "string"
        },
        {
          "internalType": "string",
          "name": "metadataURI",
          "type": "string"
        }
      ],
      "name": "createProjectToken",
      "outputs": [
        {
          "internalType": "uint256",
          "name": "",
          "type": "uint256"
        }
      ],
      "stateMutability": "nonpayable",
      "type": "function"
    },
    {
      "inputs": [
        {
          "internalType": "uint256",
          "name": "tokenId",
          "type": "uint256"
        }
      ],
      "name": "currentSupply",
      "outputs": [
        {
          "internalType": "uint256",
          "name": "",
          "type": "uint256"
        }
      ],
      "stateMutability": "view",
      "type": "function"
    },
    {
      "inputs": [
        {
          "internalType": "uint256",
          "name": "id",
          "type": "uint256"
        }
      ],
      "name": "exists",
      "outputs": [
        {
          "internalType": "bool",
          "name": "",
          "type": "bool"
        }
      ],
      "stateMutability": "view",
      "type": "function"
    },
    {
      "inputs": [
        {
          "internalType": "uint256",
          "name": "tokenId",
          "type": "uint256"
        }
      ],
      "name": "getProjectInfo",
      "outputs": [
        {
          "internalType": "string",
          "name": "projectId",
          "type": "string"
        },
        {
          "internalType": "uint256",
          "name": "currentCirculatingSupply",
          "type": "uint256"
        },
        {
          "internalType": "uint256",
          "name": "totalRetired",
          "type": "uint256"
        },
        {
          "internalType": "string",
          "name": "metadataURI",
          "type": "string"
        }
      ],
      "stateMutability": "view",
      "type": "function"
    },
    {
      "inputs": [
        {
          "internalType": "string",
          "name": "projectId",
          "type": "string"
        }
      ],
      "name": "getTokenIdForProject",
      "outputs": [
        {
          "internalType": "uint256",
          "name": "",
          "type": "uint256"
        }
      ],
      "stateMutability": "view",
      "type": "function"
    },
    {
      "inputs": [
        {
          "internalType": "address",
          "name": "account",
          "type": "address"
        },
        {
          "internalType": "address",
          "name": "operator",
          "type": "address"
        }
      ],
      "name": "isApprovedForAll",
      "outputs": [
        {
          "internalType": "bool",
          "name": "",
          "type": "bool"
        }
      ],
      "stateMutability": "view",
      "type": "function"
    },
    {
      "inputs": [
        {
          "internalType": "string",
          "name": "",
          "type": "string"
        }
      ],
      "name": "isMinted",
      "outputs": [
        {
          "internalType": "bool",
          "name": "",
          "type": "bool"
        }
      ],
      "stateMutability": "view",
      "type": "function"
    },
    {
      "inputs": [
        {
          "internalType": "string",
          "name": "projectId",
          "type": "string"
        },
        {
          "internalType": "address",
          "name": "recipient",
          "type": "address"
        },
        {
          "internalType": "uint256",
          "name": "amount",
          "type": "uint256"
        }
      ],
      "name": "mintCredits",
      "outputs": [],
      "stateMutability": "nonpayable",
      "type": "function"
    },
    {
      "inputs": [
        {
          "internalType": "string",
          "name": "",
          "type": "string"
        }
      ],
      "name": "projectToToken",
      "outputs": [
        {
          "internalType": "uint256",
          "name": "",
          "type": "uint256"
        }
      ],
      "stateMutability": "view",
      "type": "function"
    },
    {
      "inputs": [
        {
          "internalType": "uint256",
          "name": "tokenId",
          "type": "uint256"
        },
        {
          "internalType": "uint256",
          "name": "amount",
          "type": "uint256"
        }
      ],
      "name": "retireCredits",
      "outputs": [],
      "stateMutability": "nonpayable",
      "type": "function"
    },
    {
      "inputs": [
        {
          "internalType": "uint256",
          "name": "",
          "type": "uint256"
        }
      ],
      "name": "retiredCredits",
      "outputs": [
        {
          "internalType": "uint256",
          "name": "",
          "type": "uint256"
        }
      ],
      "stateMutability": "view",
      "type": "function"
    },
    {
      "inputs": [
        {
          "internalType": "address",
          "name": "from",
          "type": "address"
        },
        {
          "internalType": "address",
          "name": "to",
          "type": "address"
        },
        {
          "internalType": "uint256[]",
          "name": "ids",
          "type": "uint256[]"
        },
        {
          "internalType": "uint256[]",
          "name": "values",
          "type": "uint256[]"
        },
        {
          "internalType": "bytes",
          "name": "data",
          "type": "bytes"
        }
      ],
      "name": "safeBatchTransferFrom",
      "outputs": [],
      "stateMutability": "nonpayable",
      "type": "function"
    },
    {
      "inputs": [
        {
          "internalType": "address",
          "name": "from",
          "type": "address"
        },
        {
          "internalType": "address",
          "name": "to",
          "type": "address"
        },
        {
          "internalType": "uint256",
          "name": "id",
          "type": "uint256"
        },
        {
          "internalType": "uint256",
          "name": "value",
          "type": "uint256"
        },
        {
          "internalType": "bytes",
          "name": "data",
          "type": "bytes"
        }
      ],
      "name": "safeTransferFrom",
      "outputs": [],
      "stateMutability": "nonpayable",
      "type": "function"
    },
    {
      "inputs": [
        {
          "internalType": "address",
          "name": "operator",
          "type": "address"
        },
        {
          "internalType": "bool",
          "name": "approved",
          "type": "bool"
        }
      ],
      "name": "setApprovalForAll",
      "outputs": [],
      "stateMutability": "nonpayable",
      "type": "function"
    },
    {
      "inputs": [
        {
          "internalType": "address",
          "name": "_workflow",
          "type": "address"
        }
      ],
      "name": "setWorkflowManager",
      "outputs": [],
      "stateMutability": "nonpayable",
      "type": "function"
    },
    {
      "inputs": [
        {
          "internalType": "bytes4",
          "name": "interfaceId",
          "type": "bytes4"
        }
      ],
      "name": "supportsInterface",
      "outputs": [
        {
          "internalType": "bool",
          "name": "",
          "type": "bool"
        }
      ],
      "stateMutability": "view",
      "type": "function"
    },
    {
      "inputs": [
        {
          "internalType": "uint256",
          "name": "",
          "type": "uint256"
        }
      ],
      "name": "tokenToProject",
      "outputs": [
        {
          "internalType": "string",
          "name": "",
          "type": "string"
        }
      ],
      "stateMutability": "view",
      "type": "function"
    },
    {
      "inputs": [
        {
          "internalType": "uint256",
          "name": "tokenId",
          "type": "uint256"
        }
      ],
      "name": "totalHistoricalMinted",
      "outputs": [
        {
          "internalType": "uint256",
          "name": "",
          "type": "uint256"
        }
      ],
      "stateMutability": "view",
      "type": "function"
    },
    {
      "inputs": [],
      "name": "totalSupply",
      "outputs": [
        {
          "internalType": "uint256",
          "name": "",
          "type": "uint256"
        }
      ],
      "stateMutability": "view",
      "type": "function"
    },
    {
      "inputs": [
        {
          "internalType": "uint256",
          "name": "id",
          "type": "uint256"
        }
      ],
      "name": "totalSupply",
      "outputs": [
        {
          "internalType": "uint256",
          "name": "",
          "type": "uint256"
        }
      ],
      "stateMutability": "view",
      "type": "function"
    },
    {
      "inputs": [
        {
          "internalType": "uint256",
          "name": "tokenId",
          "type": "uint256"
        }
      ],
      "name": "uri",
      "outputs": [
        {
          "internalType": "string",
          "name": "",
          "type": "string"
        }
      ],
      "stateMutability": "view",
      "type": "function"
    },
    {
      "inputs": [],
      "name": "workflowManager",
      "outputs": [
        {
          "internalType": "address",
          "name": "",
          "type": "address"
        }
      ],
      "stateMutability": "view",
      "type": "function"
    }
  ],
  "bytecode": "0x60a060405234801562000010575f80fd5b506040516200232138038062002321833981016040819052620000339162000099565b60408051602081019091525f81526200004c8162000087565b506001600160a01b038116620000755760405163e6c4247b60e01b815260040160405180910390fd5b6001600160a01b031660805262000232565b600262000095828262000166565b5050565b5f60208284031215620000aa575f80fd5b81516001600160a01b0381168114620000c1575f80fd5b9392505050565b634e487b7160e01b5f52604160045260245ffd5b600181811c90821680620000f157607f821691505b6020821081036200011057634e487b7160e01b5f52602260045260245ffd5b50919050565b601f8211156200016157805f5260205f20601f840160051c810160208510156200013d5750805b601f840160051c820191505b818110156200015e575f815560010162000149565b50505b505050565b81516001600160401b03811115620001825762000182620000c8565b6200019a81620001938454620000dc565b8462000116565b602080601f831160018114620001d0575f8415620001b85750858301515b5f19600386901b1c1916600185901b1785556200022a565b5f85815260208120601f198616915b828110156200020057888601518255948401946001909101908401620001df565b50858210156200021e57878501515f19600388901b60f8161c191681555b505060018460011b0185555b505050505050565b6080516120c1620002605f395f818161034c0152818161056b015281816107620152610afd01526120c15ff3fe608060405234801561000f575f80fd5b5060043610610186575f3560e01c806358b033e1116100d9578063a22cb46511610093578063e985e9c51161006e578063e985e9c5146103d9578063ef205c1a146103ec578063f242432a1461040b578063fabf59681461041e575f80fd5b8063a22cb46514610394578063b98790c4146103a7578063bd85b039146103ba575f80fd5b806358b033e1146102f35780635b7460771461030657806367ad98da1461031957806371907f17146103475780637643253a1461036e578063911d255214610381575f80fd5b80631d8a7f931161014457806346cbe4af1161011f57806346cbe4af1461028c5780634bddbfca1461029f5780634e1273f4146102b25780634f558e79146102d2575f80fd5b80631d8a7f931461023b5780632eb2c2d6146102665780633ea0fb1314610279575f80fd5b8062fdd58e1461018a57806301ffc9a7146101b05780630bdbbdfe146101d35780630e89341c146101fe578063124d91e51461021e57806318160ddd14610233575b5f80fd5b61019d61019836600461170e565b610441565b6040519081526020015b60405180910390f35b6101c36101be36600461174e565b610468565b60405190151581526020016101a7565b6005546101e6906001600160a01b031681565b6040516001600160a01b0390911681526020016101a7565b61021161020c366004611770565b6104b7565b6040516101a791906117ca565b61023161022c3660046117dc565b610556565b005b60045461019d565b61019d6102493660046118a4565b805160208183018101805160088252928201919093012091525481565b61023161027436600461199c565b61062a565b610231610287366004611a3e565b610696565b61023161029a366004611a5e565b61074d565b6102316102ad366004611abb565b610838565b6102c56102c0366004611b12565b6109d0565b6040516101a79190611c05565b6101c36102e0366004611770565b5f90815260036020526040902054151590565b61019d610301366004611770565b610a9a565b61019d610314366004611770565b610abd565b6101c36103273660046118a4565b8051602081830181018051600b8252928201919093012091525460ff1681565b6101e67f000000000000000000000000000000000000000000000000000000000000000081565b61019d61037c366004611c17565b610ad0565b61021161038f366004611770565b610c89565b6102316103a2366004611c8a565b610d20565b61019d6103b5366004611cbf565b610d2f565b61019d6103c8366004611770565b5f9081526003602052604090205490565b6101c36103e7366004611cfd565b610d59565b61019d6103fa366004611770565b600a6020525f908152604090205481565b610231610419366004611d2e565b610d86565b61043161042c366004611770565b610de5565b6040516101a79493929190611d8d565b5f818152602081815260408083206001600160a01b03861684529091529020545b92915050565b5f6001600160e01b03198216636cdb3d1360e11b148061049857506001600160e01b031982166303a24d0760e21b145b8061046257506301ffc9a760e01b6001600160e01b0319831614610462565b5f8181526009602052604090208054606091906104d390611dc8565b80601f01602080910402602001604051908101604052809291908181526020018280546104ff90611dc8565b801561054a5780601f106105215761010080835404028352916020019161054a565b820191905f5260205f20905b81548152906001019060200180831161052d57829003601f168201915b50505050509050919050565b604051630935e01b60e21b81523360048201527f00000000000000000000000000000000000000000000000000000000000000006001600160a01b0316906324d7806c90602401602060405180830381865afa1580156105b8573d5f803e3d5ffd5b505050506040513d601f19601f820116820180604052508101906105dc9190611e00565b6105f8576040516282b42960e81b815260040160405180910390fd5b610603838383610f4a565b5f828152600a602052604081208054839290610620908490611e2f565b9091555050505050565b336001600160a01b038616811480159061064b57506106498682610d59565b155b156106815760405163711bec9160e11b81526001600160a01b038083166004830152871660248201526044015b60405180910390fd5b61068e8686868686610fb7565b505050505050565b806106a13384610441565b10156106e55733826106b33385610441565b60405163db42144d60e01b81526001600160a01b03909316600484015260248301919091526044820152606401610678565b6106f0338383610f4a565b5f828152600a60205260408120805483929061070d908490611e2f565b9091555050604051818152339083907f31995d78296d80ec997704a03d4e6295c44e8755e8117523fb44bf086c306dcb9060200160405180910390a35050565b604051630935e01b60e21b81523360048201527f00000000000000000000000000000000000000000000000000000000000000006001600160a01b0316906324d7806c90602401602060405180830381865afa1580156107af573d5f803e3d5ffd5b505050506040513d601f19601f820116820180604052508101906107d39190611e00565b6107ef576040516282b42960e81b815260040160405180910390fd5b6001600160a01b0381166108165760405163e6c4247b60e01b815260040160405180910390fd5b600580546001600160a01b0319166001600160a01b0392909216919091179055565b6005546001600160a01b031633146108885760405162461bcd60e51b81526020600482015260136024820152722ab730baba3437b934bd32b21036b4b73a32b960691b6044820152606401610678565b600b848460405161089a929190611e42565b9081526040519081900360200190205460ff16156108eb5760405162461bcd60e51b815260206004820152600e60248201526d105b1c9958591e481b5a5b9d195960921b6044820152606401610678565b5f600885856040516108fe929190611e42565b9081526020016040518091039020549050805f0361093357848460405163733d379960e01b8152600401610678929190611e51565b6001600b8686604051610947929190611e42565b90815260200160405180910390205f6101000a81548160ff02191690831515021790555061098583828460405180602001604052805f815250611015565b826001600160a01b0316817f921c08e825069e4d980f75f8c9d39ab505649f98d18f620f19759e16f0e3ba6b846040516109c191815260200190565b60405180910390a35050505050565b60608151835114610a015781518351604051635b05999160e01b815260048101929092526024820152604401610678565b5f83516001600160401b03811115610a1b57610a1b61180c565b604051908082528060200260200182016040528015610a44578160200160208202803683370190505b5090505f5b8451811015610a9257602080820286010151610a6d90602080840287010151610441565b828281518110610a7f57610a7f611e7f565b6020908102919091010152600101610a49565b509392505050565b5f818152600a602090815260408083205460039092528220546104629190611e2f565b5f81815260036020526040812054610462565b6005545f906001600160a01b03163314801590610b705750604051630935e01b60e21b81523360048201527f00000000000000000000000000000000000000000000000000000000000000006001600160a01b0316906324d7806c90602401602060405180830381865afa158015610b4a573d5f803e3d5ffd5b505050506040513d601f19601f82011682018060405250810190610b6e9190611e00565b155b15610b8d576040516282b42960e81b815260040160405180910390fd5b60088585604051610b9f929190611e42565b9081526020016040518091039020545f14610bd15784846040516315004fff60e31b8152600401610678929190611e51565b60068054905f610be083611e93565b90915550506006545f818152600760205260409020610c00868883611ef4565b508060088787604051610c14929190611e42565b9081526040805160209281900383019020929092555f838152600990915220610c3e848683611ef4565b508585604051610c4f929190611e42565b6040519081900381209082907fb0910f3c527943f5bbf103eb29fba7c2b10062094ab16ecd5e5fdd23ed139767905f90a395945050505050565b60076020525f908152604090208054610ca190611dc8565b80601f0160208091040260200160405190810160405280929190818152602001828054610ccd90611dc8565b8015610d185780601f10610cef57610100808354040283529160200191610d18565b820191905f5260205f20905b815481529060010190602001808311610cfb57829003601f168201915b505050505081565b610d2b338383611070565b5050565b5f60088383604051610d42929190611e42565b908152602001604051809103902054905092915050565b6001600160a01b039182165f90815260016020908152604080832093909416825291909152205460ff1690565b336001600160a01b0386168114801590610da75750610da58682610d59565b155b15610dd85760405163711bec9160e11b81526001600160a01b03808316600483015287166024820152604401610678565b61068e8686868686611104565b60605f80606060075f8681526020019081526020015f208054610e0790611dc8565b80601f0160208091040260200160405190810160405280929190818152602001828054610e3390611dc8565b8015610e7e5780601f10610e5557610100808354040283529160200191610e7e565b820191905f5260205f20905b815481529060010190602001808311610e6157829003601f168201915b50505050509350610e9a855f9081526003602052604090205490565b5f868152600a60209081526040808320546009909252909120805492955090935090610ec590611dc8565b80601f0160208091040260200160405190810160405280929190818152602001828054610ef190611dc8565b8015610f3c5780601f10610f1357610100808354040283529160200191610f3c565b820191905f5260205f20905b815481529060010190602001808311610f1f57829003601f168201915b505050505090509193509193565b6001600160a01b038316610f7257604051626a0d4560e21b81525f6004820152602401610678565b604080516001808252602082018590528183019081526060820184905260a082019092525f60808201818152919291610fb091879185908590611190565b5050505050565b6001600160a01b038416610fe057604051632bfa23e760e11b81525f6004820152602401610678565b6001600160a01b03851661100857604051626a0d4560e21b81525f6004820152602401610678565b610fb08585858585611190565b6001600160a01b03841661103e57604051632bfa23e760e11b81525f6004820152602401610678565b6040805160018082526020820186905281830190815260608201859052608082019092529061068e5f87848487611190565b6001600160a01b0382166110985760405162ced3e160e81b81525f6004820152602401610678565b6001600160a01b038381165f81815260016020908152604080832094871680845294825291829020805460ff191686151590811790915591519182527f17307eab39ab6107e8899845ad3d59bd9653f200f220920489ca2b5937696c31910160405180910390a3505050565b6001600160a01b03841661112d57604051632bfa23e760e11b81525f6004820152602401610678565b6001600160a01b03851661115557604051626a0d4560e21b81525f6004820152602401610678565b604080516001808252602082018690528183019081526060820185905260808201909252906111878787848487611190565b50505050505050565b61119c858585856111e3565b6001600160a01b03841615610fb057825133906001036111d557602084810151908401516111ce8389898585896111f5565b505061068e565b61068e818787878787611316565b6111ef848484846113fd565b50505050565b6001600160a01b0384163b1561068e5760405163f23a6e6160e01b81526001600160a01b0385169063f23a6e61906112399089908990889088908890600401611fad565b6020604051808303815f875af1925050508015611273575060408051601f3d908101601f1916820190925261127091810190611fe6565b60015b6112da573d8080156112a0576040519150601f19603f3d011682016040523d82523d5f602084013e6112a5565b606091505b5080515f036112d257604051632bfa23e760e11b81526001600160a01b0386166004820152602401610678565b805160208201fd5b6001600160e01b0319811663f23a6e6160e01b1461118757604051632bfa23e760e11b81526001600160a01b0386166004820152602401610678565b6001600160a01b0384163b1561068e5760405163bc197c8160e01b81526001600160a01b0385169063bc197c819061135a9089908990889088908890600401612001565b6020604051808303815f875af1925050508015611394575060408051601f3d908101601f1916820190925261139191810190611fe6565b60015b6113c1573d8080156112a0576040519150601f19603f3d011682016040523d82523d5f602084013e6112a5565b6001600160e01b0319811663bc197c8160e01b1461118757604051632bfa23e760e11b81526001600160a01b0386166004820152602401610678565b611409848484846114e4565b6001600160a01b038416611486575f805b835181101561146d5760208181028481018201519086018201515f908152600390925260408220805491928392611452908490611e2f565b9091555061146290508184611e2f565b92505060010161141a565b508060045f82825461147f9190611e2f565b9091555050505b6001600160a01b0383166111ef575f805b83518110156114d35760208181028481018201519086018201515f90815260039092526040909120805482900390559190910190600101611497565b506004805491909103905550505050565b80518251146115135781518151604051635b05999160e01b815260048101929092526024820152604401610678565b335f5b8351811015611615576020818102858101820151908501909101516001600160a01b038816156115c7575f828152602081815260408083206001600160a01b038c168452909152902054818110156115a1576040516303dee4c560e01b81526001600160a01b038a166004820152602481018290526044810183905260648101849052608401610678565b5f838152602081815260408083206001600160a01b038d16845290915290209082900390555b6001600160a01b0387161561160b575f828152602081815260408083206001600160a01b038b16845290915281208054839290611605908490611e2f565b90915550505b5050600101611516565b5082516001036116955760208301515f906020840151909150856001600160a01b0316876001600160a01b0316846001600160a01b03167fc3d58168c5ae7397731d063d5bbf3d657854427343f4c083240f7aacaa2d0f628585604051611686929190918252602082015260400190565b60405180910390a45050610fb0565b836001600160a01b0316856001600160a01b0316826001600160a01b03167f4a39dc06d4c0dbc64b70af90fd698a233a518aa5d07e595d983b8c0526c8f7fb86866040516116e492919061205e565b60405180910390a45050505050565b80356001600160a01b0381168114611709575f80fd5b919050565b5f806040838503121561171f575f80fd5b611728836116f3565b946020939093013593505050565b6001600160e01b03198116811461174b575f80fd5b50565b5f6020828403121561175e575f80fd5b813561176981611736565b9392505050565b5f60208284031215611780575f80fd5b5035919050565b5f81518084525f5b818110156117ab5760208185018101518683018201520161178f565b505f602082860101526020601f19601f83011685010191505092915050565b602081525f6117696020830184611787565b5f805f606084860312156117ee575f80fd5b6117f7846116f3565b95602085013595506040909401359392505050565b634e487b7160e01b5f52604160045260245ffd5b604051601f8201601f191681016001600160401b03811182821017156118485761184861180c565b604052919050565b5f6001600160401b038311156118685761186861180c565b61187b601f8401601f1916602001611820565b905082815283838301111561188e575f80fd5b828260208301375f602084830101529392505050565b5f602082840312156118b4575f80fd5b81356001600160401b038111156118c9575f80fd5b8201601f810184136118d9575f80fd5b6118e884823560208401611850565b949350505050565b5f6001600160401b038211156119085761190861180c565b5060051b60200190565b5f82601f830112611921575f80fd5b81356020611936611931836118f0565b611820565b8083825260208201915060208460051b870101935086841115611957575f80fd5b602086015b84811015611973578035835291830191830161195c565b509695505050505050565b5f82601f83011261198d575f80fd5b61176983833560208501611850565b5f805f805f60a086880312156119b0575f80fd5b6119b9866116f3565b94506119c7602087016116f3565b935060408601356001600160401b03808211156119e2575f80fd5b6119ee89838a01611912565b94506060880135915080821115611a03575f80fd5b611a0f89838a01611912565b93506080880135915080821115611a24575f80fd5b50611a318882890161197e565b9150509295509295909350565b5f8060408385031215611a4f575f80fd5b50508035926020909101359150565b5f60208284031215611a6e575f80fd5b611769826116f3565b5f8083601f840112611a87575f80fd5b5081356001600160401b03811115611a9d575f80fd5b602083019150836020828501011115611ab4575f80fd5b9250929050565b5f805f8060608587031215611ace575f80fd5b84356001600160401b03811115611ae3575f80fd5b611aef87828801611a77565b9095509350611b029050602086016116f3565b9396929550929360400135925050565b5f8060408385031215611b23575f80fd5b82356001600160401b0380821115611b39575f80fd5b818501915085601f830112611b4c575f80fd5b81356020611b5c611931836118f0565b82815260059290921b84018101918181019089841115611b7a575f80fd5b948201945b83861015611b9f57611b90866116f3565b82529482019490820190611b7f565b96505086013592505080821115611bb4575f80fd5b50611bc185828601611912565b9150509250929050565b5f815180845260208085019450602084015f5b83811015611bfa57815187529582019590820190600101611bde565b509495945050505050565b602081525f6117696020830184611bcb565b5f805f8060408587031215611c2a575f80fd5b84356001600160401b0380821115611c40575f80fd5b611c4c88838901611a77565b90965094506020870135915080821115611c64575f80fd5b50611c7187828801611a77565b95989497509550505050565b801515811461174b575f80fd5b5f8060408385031215611c9b575f80fd5b611ca4836116f3565b91506020830135611cb481611c7d565b809150509250929050565b5f8060208385031215611cd0575f80fd5b82356001600160401b03811115611ce5575f80fd5b611cf185828601611a77565b90969095509350505050565b5f8060408385031215611d0e575f80fd5b611d17836116f3565b9150611d25602084016116f3565b90509250929050565b5f805f805f60a08688031215611d42575f80fd5b611d4b866116f3565b9450611d59602087016116f3565b9350604086013592506060860135915060808601356001600160401b03811115611d81575f80fd5b611a318882890161197e565b608081525f611d9f6080830187611787565b8560208401528460408401528281036060840152611dbd8185611787565b979650505050505050565b600181811c90821680611ddc57607f821691505b602082108103611dfa57634e487b7160e01b5f52602260045260245ffd5b50919050565b5f60208284031215611e10575f80fd5b815161176981611c7d565b634e487b7160e01b5f52601160045260245ffd5b8082018082111561046257610462611e1b565b818382375f9101908152919050565b60208152816020820152818360408301375f818301604090810191909152601f909201601f19160101919050565b634e487b7160e01b5f52603260045260245ffd5b5f60018201611ea457611ea4611e1b565b5060010190565b601f821115611eef57805f5260205f20601f840160051c81016020851015611ed05750805b601f840160051c820191505b81811015610fb0575f8155600101611edc565b505050565b6001600160401b03831115611f0b57611f0b61180c565b611f1f83611f198354611dc8565b83611eab565b5f601f841160018114611f50575f8515611f395750838201355b5f19600387901b1c1916600186901b178355610fb0565b5f83815260208120601f198716915b82811015611f7f5786850135825560209485019460019092019101611f5f565b5086821015611f9b575f1960f88860031b161c19848701351681555b505060018560011b0183555050505050565b6001600160a01b03868116825285166020820152604081018490526060810183905260a0608082018190525f90611dbd90830184611787565b5f60208284031215611ff6575f80fd5b815161176981611736565b6001600160a01b0386811682528516602082015260a0604082018190525f9061202c90830186611bcb565b828103606084015261203e8186611bcb565b905082810360808401526120528185611787565b98975050505050505050565b604081525f6120706040830185611bcb565b82810360208401526120828185611bcb565b9594505050505056fea2646970667358221220cd882c2d9afce928b405481876af0111c0cb1218d502840a986e2a7fec39bad964736f6c63430008180033",
  "linkReferences": {},
  "deployedLinkReferences": {}
}